{
  "address": "0x970fb090C7beF8aB6aD200E8C370b77F4a3a5e49",
  "abi": [
    {
      "inputs": [],
      "stateMutability": "nonpayable",
      "type": "constructor"
    },
    {
      "anonymous": false,
      "inputs": [
        {
          "indexed": true,
          "internalType": "address",
          "name": "user",
          "type": "address"
        },
        {
          "indexed": true,
          "internalType": "address",
          "name": "newAdmin",
          "type": "address"
        }
      ],
      "name": "AdminUpdated",
      "type": "event"
    },
    {
      "anonymous": false,
      "inputs": [
        {
          "indexed": false,
          "internalType": "uint64",
          "name": "chainId",
          "type": "uint64"
        },
        {
          "indexed": false,
          "internalType": "address",
          "name": "chainContract",
          "type": "address"
        },
        {
          "indexed": false,
          "internalType": "address",
          "name": "previousChainContract",
          "type": "address"
        }
      ],
      "name": "ChainAdded",
      "type": "event"
    },
    {
      "anonymous": false,
      "inputs": [
        {
          "indexed": false,
          "internalType": "address",
          "name": "executor",
          "type": "address"
        },
        {
          "indexed": false,
          "internalType": "bool",
          "name": "enabled",
          "type": "bool"
        },
        {
          "indexed": false,
          "internalType": "bool",
          "name": "previousEnabled",
          "type": "bool"
        }
      ],
      "name": "ExecutorChanged",
      "type": "event"
    },
    {
      "anonymous": false,
      "inputs": [
        {
          "indexed": false,
          "internalType": "uint8",
          "name": "version",
          "type": "uint8"
        }
      ],
      "name": "Initialized",
      "type": "event"
    },
    {
      "anonymous": false,
      "inputs": [
        {
          "indexed": false,
          "internalType": "address",
          "name": "operator",
          "type": "address"
        },
        {
          "indexed": false,
          "internalType": "uint256",
          "name": "amount",
          "type": "uint256"
        }
      ],
      "name": "NativeBalanceRetrieved",
      "type": "event"
    },
    {
      "anonymous": false,
      "inputs": [
        {
          "indexed": false,
          "internalType": "address",
          "name": "account",
          "type": "address"
        }
      ],
      "name": "Paused",
      "type": "event"
    },
    {
      "anonymous": false,
      "inputs": [
        {
          "indexed": false,
          "internalType": "bytes32",
          "name": "transferId",
          "type": "bytes32"
        },
        {
          "indexed": false,
          "internalType": "address",
          "name": "sender",
          "type": "address"
        },
        {
          "indexed": false,
          "internalType": "address",
          "name": "token",
          "type": "address"
        },
        {
          "indexed": false,
          "internalType": "uint256",
          "name": "amount",
          "type": "uint256"
        },
        {
          "indexed": false,
          "internalType": "uint64",
          "name": "sourceChainId",
          "type": "uint64"
        },
        {
          "indexed": false,
          "internalType": "uint64",
          "name": "nonce",
          "type": "uint64"
        },
        {
          "indexed": false,
          "internalType": "address",
          "name": "executor",
          "type": "address"
        },
        {
          "indexed": false,
          "internalType": "bytes",
          "name": "action",
          "type": "bytes"
        }
      ],
      "name": "ReceiveX",
      "type": "event"
    },
    {
      "anonymous": false,
      "inputs": [
        {
          "indexed": false,
          "internalType": "address",
          "name": "originalToken",
          "type": "address"
        },
        {
          "indexed": false,
          "internalType": "address",
          "name": "token",
          "type": "address"
        },
        {
          "indexed": false,
          "internalType": "address",
          "name": "previousToken",
          "type": "address"
        },
        {
          "indexed": false,
          "internalType": "uint256",
          "name": "minTransferAmount",
          "type": "uint256"
        }
      ],
      "name": "TokenAdded",
      "type": "event"
    },
    {
      "anonymous": false,
      "inputs": [
        {
          "indexed": false,
          "internalType": "bytes32",
          "name": "transferId",
          "type": "bytes32"
        },
        {
          "indexed": false,
          "internalType": "address",
          "name": "sender",
          "type": "address"
        },
        {
          "indexed": false,
          "internalType": "address",
          "name": "token",
          "type": "address"
        },
        {
          "indexed": false,
          "internalType": "uint256",
          "name": "amount",
          "type": "uint256"
        },
        {
          "indexed": false,
          "internalType": "uint64",
          "name": "destChainId",
          "type": "uint64"
        },
        {
          "indexed": false,
          "internalType": "uint64",
          "name": "nonce",
          "type": "uint64"
        },
        {
          "indexed": false,
          "internalType": "uint256",
          "name": "userFees",
          "type": "uint256"
        },
        {
          "indexed": false,
          "internalType": "uint256",
          "name": "fees",
          "type": "uint256"
        },
        {
          "indexed": false,
          "internalType": "bytes",
          "name": "action",
          "type": "bytes"
        }
      ],
      "name": "TransferX",
      "type": "event"
    },
    {
      "anonymous": false,
      "inputs": [
        {
          "indexed": false,
          "internalType": "address",
          "name": "account",
          "type": "address"
        }
      ],
      "name": "Unpaused",
      "type": "event"
    },
    {
      "inputs": [],
      "name": "ACTION_REDEEM_X",
      "outputs": [
        {
          "internalType": "bytes",
          "name": "",
          "type": "bytes"
        }
      ],
      "stateMutability": "view",
      "type": "function"
    },
    {
      "inputs": [],
      "name": "ACTION_TRANSFER_X",
      "outputs": [
        {
          "internalType": "bytes",
          "name": "",
          "type": "bytes"
        }
      ],
      "stateMutability": "view",
      "type": "function"
    },
    {
      "inputs": [
        {
          "internalType": "uint64",
          "name": "chainId_",
          "type": "uint64"
        },
        {
          "internalType": "address",
          "name": "chainContract_",
          "type": "address"
        }
      ],
      "name": "addChainContract",
      "outputs": [],
      "stateMutability": "nonpayable",
      "type": "function"
    },
    {
      "inputs": [
        {
          "internalType": "address",
          "name": "executor_",
          "type": "address"
        }
      ],
      "name": "addExecutor",
      "outputs": [],
      "stateMutability": "nonpayable",
      "type": "function"
    },
    {
      "inputs": [
        {
          "internalType": "address",
          "name": "originalToken_",
          "type": "address"
        },
        {
          "internalType": "address",
          "name": "currentChainToken_",
          "type": "address"
        },
        {
          "internalType": "uint256",
          "name": "minTransferAmount_",
          "type": "uint256"
        }
      ],
      "name": "addToken",
      "outputs": [],
      "stateMutability": "nonpayable",
      "type": "function"
    },
    {
      "inputs": [],
      "name": "admin",
      "outputs": [
        {
          "internalType": "address",
          "name": "",
          "type": "address"
        }
      ],
      "stateMutability": "view",
      "type": "function"
    },
    {
      "inputs": [
        {
          "internalType": "uint64",
          "name": "",
          "type": "uint64"
        }
      ],
      "name": "chainContractMapping",
      "outputs": [
        {
          "internalType": "address",
          "name": "",
          "type": "address"
        }
      ],
      "stateMutability": "view",
      "type": "function"
    },
    {
      "inputs": [
        {
          "internalType": "address",
          "name": "user_",
          "type": "address"
        },
        {
          "internalType": "uint64",
          "name": "sourceChainId_",
          "type": "uint64"
        },
        {
          "internalType": "address",
          "name": "originalToken_",
          "type": "address"
        },
        {
          "internalType": "uint256",
          "name": "amount_",
          "type": "uint256"
        },
        {
          "internalType": "uint64",
          "name": "destChainId_",
          "type": "uint64"
        },
        {
          "internalType": "uint64",
          "name": "nonce_",
          "type": "uint64"
        }
      ],
      "name": "computeTransferId",
      "outputs": [
        {
          "internalType": "bytes32",
          "name": "",
          "type": "bytes32"
        }
      ],
      "stateMutability": "pure",
      "type": "function"
    },
    {
      "inputs": [
        {
          "internalType": "bytes",
          "name": "message_",
          "type": "bytes"
        }
      ],
      "name": "decodeMessage",
      "outputs": [
        {
          "internalType": "address",
          "name": "user_",
          "type": "address"
        },
        {
          "internalType": "address",
          "name": "originalToken_",
          "type": "address"
        },
        {
          "internalType": "uint256",
          "name": "amount_",
          "type": "uint256"
        },
        {
          "internalType": "uint64",
          "name": "nonce",
          "type": "uint64"
        },
        {
          "internalType": "bytes",
          "name": "action_",
          "type": "bytes"
        }
      ],
      "stateMutability": "pure",
      "type": "function"
    },
    {
      "inputs": [
        {
          "internalType": "address",
          "name": "user_",
          "type": "address"
        },
        {
          "internalType": "address",
          "name": "originalToken_",
          "type": "address"
        },
        {
          "internalType": "uint256",
          "name": "amount_",
          "type": "uint256"
        },
        {
          "internalType": "uint64",
          "name": "nonce_",
          "type": "uint64"
        },
        {
          "internalType": "bytes",
          "name": "action_",
          "type": "bytes"
        }
      ],
      "name": "encodeMessage",
      "outputs": [
        {
          "internalType": "bytes",
          "name": "",
          "type": "bytes"
        }
      ],
      "stateMutability": "pure",
      "type": "function"
    },
    {
      "inputs": [
        {
          "internalType": "address",
          "name": "sourceContract_",
          "type": "address"
        },
        {
          "internalType": "uint64",
          "name": "sourceChainId_",
          "type": "uint64"
        },
        {
          "internalType": "bytes",
          "name": "message_",
          "type": "bytes"
        },
        {
          "internalType": "address",
          "name": "executor_",
          "type": "address"
        }
      ],
      "name": "executeMessage",
      "outputs": [
        {
          "internalType": "enum IMessageReceiverApp.ExecutionStatus",
          "name": "",
          "type": "uint8"
        }
      ],
      "stateMutability": "payable",
      "type": "function"
    },
    {
      "inputs": [
        {
          "internalType": "address",
          "name": "",
          "type": "address"
        }
      ],
      "name": "executors",
      "outputs": [
        {
          "internalType": "bool",
          "name": "",
          "type": "bool"
        }
      ],
      "stateMutability": "view",
      "type": "function"
    },
    {
      "inputs": [
        {
          "internalType": "address",
          "name": "user_",
          "type": "address"
        },
        {
          "internalType": "uint256",
          "name": "amount_",
          "type": "uint256"
        }
      ],
      "name": "getTransferXFee",
      "outputs": [
        {
          "internalType": "uint256",
          "name": "",
          "type": "uint256"
        }
      ],
      "stateMutability": "view",
      "type": "function"
    },
    {
      "inputs": [
        {
          "internalType": "address",
          "name": "messageBus_",
          "type": "address"
        },
        {
          "internalType": "uint64",
          "name": "originalChainId_",
          "type": "uint64"
        }
      ],
      "name": "initialize",
      "outputs": [],
      "stateMutability": "nonpayable",
      "type": "function"
    },
    {
      "inputs": [],
      "name": "isOriginalChain",
      "outputs": [
        {
          "internalType": "bool",
          "name": "",
          "type": "bool"
        }
      ],
      "stateMutability": "view",
      "type": "function"
    },
    {
      "inputs": [],
      "name": "messageBus",
      "outputs": [
        {
          "internalType": "address",
          "name": "",
          "type": "address"
        }
      ],
      "stateMutability": "view",
      "type": "function"
    },
    {
      "inputs": [
        {
          "internalType": "address",
          "name": "",
          "type": "address"
        }
      ],
      "name": "nonces",
      "outputs": [
        {
          "internalType": "uint64",
          "name": "",
          "type": "uint64"
        }
      ],
      "stateMutability": "view",
      "type": "function"
    },
    {
      "inputs": [],
      "name": "originalChainId",
      "outputs": [
        {
          "internalType": "uint64",
          "name": "",
          "type": "uint64"
        }
      ],
      "stateMutability": "view",
      "type": "function"
    },
    {
      "inputs": [],
      "name": "pause",
      "outputs": [],
      "stateMutability": "nonpayable",
      "type": "function"
    },
    {
      "inputs": [],
      "name": "paused",
      "outputs": [
        {
          "internalType": "bool",
          "name": "",
          "type": "bool"
        }
      ],
      "stateMutability": "view",
      "type": "function"
    },
    {
      "inputs": [
        {
          "internalType": "address",
          "name": "",
          "type": "address"
        },
        {
          "internalType": "uint64",
          "name": "",
          "type": "uint64"
        },
        {
          "internalType": "uint64",
          "name": "",
          "type": "uint64"
        }
      ],
      "name": "receivedNonces",
      "outputs": [
        {
          "internalType": "bool",
          "name": "",
          "type": "bool"
        }
      ],
      "stateMutability": "view",
      "type": "function"
    },
    {
      "inputs": [
        {
          "internalType": "address",
          "name": "executor_",
          "type": "address"
        }
      ],
      "name": "removeExecutor",
      "outputs": [],
      "stateMutability": "nonpayable",
      "type": "function"
    },
    {
      "inputs": [],
      "name": "retrieveNativeBalance",
      "outputs": [],
      "stateMutability": "nonpayable",
      "type": "function"
    },
    {
      "inputs": [
        {
          "internalType": "address",
          "name": "newAdmin",
          "type": "address"
        }
      ],
      "name": "setAdmin",
      "outputs": [],
      "stateMutability": "nonpayable",
      "type": "function"
    },
    {
      "inputs": [
        {
          "internalType": "address",
          "name": "",
          "type": "address"
        }
      ],
      "name": "tokenMapping",
      "outputs": [
        {
          "internalType": "address",
          "name": "",
          "type": "address"
        }
      ],
      "stateMutability": "view",
      "type": "function"
    },
    {
      "inputs": [
        {
          "internalType": "address",
          "name": "",
          "type": "address"
        }
      ],
      "name": "tokenMinTransfer",
      "outputs": [
        {
          "internalType": "uint256",
          "name": "",
          "type": "uint256"
        }
      ],
      "stateMutability": "view",
      "type": "function"
    },
    {
      "inputs": [
        {
          "internalType": "address",
          "name": "originalToken_",
          "type": "address"
        },
        {
          "internalType": "uint256",
          "name": "amount_",
          "type": "uint256"
        },
        {
          "internalType": "uint64",
          "name": "destChainId_",
          "type": "uint64"
        }
      ],
      "name": "transferX",
      "outputs": [],
      "stateMutability": "payable",
      "type": "function"
    },
    {
      "inputs": [],
      "name": "unpause",
      "outputs": [],
      "stateMutability": "nonpayable",
      "type": "function"
    }
  ],
  "transactionHash": "0x5448eefcc90417d0f31334a8aff35c27b9116e0d73297e5582130354d7b69322",
  "args": [],
  "numDeployments": 2,
  "solcInputHash": "833a09946e2141d1a99c931e862c7b33",
  "bytecode": "0x608080604052346100c1576000549060ff8260081c1661006f575060ff80821610610034575b60405161236290816100c78239f35b60ff90811916176000557f7f26b83ff96e1f2b6a682f133852f6798a09c465da95921460cefb3847402498602060405160ff8152a138610025565b62461bcd60e51b815260206004820152602760248201527f496e697469616c697a61626c653a20636f6e747261637420697320696e697469604482015266616c697a696e6760c81b6064820152608490fd5b600080fdfe608080604052600436101561001357600080fd5b600090813560e01c9081630d788c3614611c10575080631798de81146119b55780631a8fcb2e1461196e5780631f5a0bbe146118d757806324788429146118445780633446595a146117755780633f4ba83a146116d3578063422f8406146116695780634c01c6d3146115ff5780635c975abb146115dc5780635cf15e51146114cb578063634d45b21461147e57806364ef63e71461143d5780636daa985014611104578063704b6c02146110ca5780637d1ba888146110915780637ecebe001461104e5780638456cb5914610fe657806393c8ceeb14610faf57806397c5a0ef14610f095780639ac2a01114610eca5780639c649fdf14610a48578063a1a227fa14610a1f578063ba27f50b146109e3578063ba2df516146109b7578063cafee3ef1461093b578063f851a440146109125763fd5cd8861461015557600080fd5b606036600319011261090f57610169611c38565b610171611c7f565b906040519161017f83611cd9565b83835261018a611f9d565b610192611fe1565b466001600160401b038216146108ad576101b66001600160a01b0383161515611ecb565b60243515610856576001600160a01b0382811685526099602052604085205416926101e2841515611f51565b6001600160401b0382168552609860205260408520546001600160a01b0316801561080557338652609d60205260408620948554906001600160401b03808316146107f15767ffffffffffffffff1982166001600160401b0392831660010192831690811790975561025984836024358933612160565b8861026382612037565b8181807a184f03e93ff9f4daa797ed6e38ed64bf6a1f010000000000000000808210156107e3575b506d04ee2d6d415b85acef8100000000808310156107d4575b50662386f26fc10000808310156107c5575b506305f5e100808310156107b6575b50612710808310156107a7575b506064821015610797575b600a8092101561078d575b81602160018501946103126102fc87611d15565b9661030a6040519889611cf4565b808852611d15565b602087019890601f1901368a37508501015b60001901916f181899199a1a9b1b9c1cb0b131b232b360811b8282061a835304908115610352578290610324565b505050604b6103bb916103ab946040519586927f447565744272696467653a206d73672e76616c7565206d75737420626520677260208501526a032b0ba32b9103a3430b7160ad1b604085015251809285850190611d30565b810103602b810185520183611cf4565b34106107655750609b54936040519463299aee5160e11b865260206004870152602086806103ec6024820187611d53565b03816001600160a01b0385165afa95861561075a578b9661071b575b506001600160401b039060a01c1646146000146106b1576040516323b872dd60e01b60208201523360248201523060448201526024356064820152606481528060a08101106001600160401b0360a08301111761069b578a938160a06104e3930160405261047860a08201611cbe565b602060a08201527f5361666545524332303a206c6f772d6c6576656c2063616c6c206661696c656460c0820152858082516020840182865af13d156106915760a03d926104c484611d15565b936104d26040519586611cf4565b84523d89602086013e5b019261221f565b805180610617575b50505b609b546001600160a01b031690813b1561061357839188876001600160401b039361054260405197889687958694634f9e72ad60e11b86526004860152166024840152606060448401526064830190611d53565b03925af18015610608576105ea575b5050907f233c30008ab27773800e29a9de8de32e730d4f804336a75b9db94ee6a37c09fd956001600160401b036105946105e09594876024358a854616336120e7565b95604051978897885233602089015260018060a01b03166040880152602435606088015216608086015260a08501523460c085015260e084015261012080610100850152830190611d53565b0390a16001805580f35b6105f79094939294611cab565b6106045790918638610551565b8680fd5b6040513d84823e3d90fd5b8380fd5b61062b929450602080918301019101612207565b1561063957889138806104eb565b60405162461bcd60e51b815260206004820152602a60248201527f5361666545524332303a204552433230206f7065726174696f6e20646964206e6044820152691bdd081cdd58d8d9595960b21b6064820152608490fd5b60a06060926104dc565b634e487b7160e01b600052604160045260246000fd5b9091803b156107175760405163079cc67960e41b81523360048201526024803590820152908a908290604490829084905af1801561070c576106f7575b509088916104ee565b6107049099919299611cab565b9790386106ee565b6040513d8c823e3d90fd5b8980fd5b9095506020813d602011610752575b8161073760209383611cf4565b8101031261074e5751946001600160401b03610408565b8a80fd5b3d915061072a565b6040513d8d823e3d90fd5b60405162461bcd60e51b815260206004820152908190610789906024830190611d53565b0390fd5b91600101916102e8565b91906064600291049101916102dd565b600491939204910191386102d2565b600891939204910191386102c5565b601091939204910191386102b6565b602091939204910191386102a4565b60409350810491503861028b565b634e487b7160e01b88526011600452602488fd5b60405162461bcd60e51b815260206004820152602360248201527f447565744272696467653a2064657374436861696e206e6f7420737570706f726044820152621d195960ea1b6064820152608490fd5b60405162461bcd60e51b815260206004820152602960248201527f447565744272696467653a20616d6f756e74206d75737420626520677265617460448201526806572207468616e20360bc1b6064820152608490fd5b60405162461bcd60e51b815260206004820152603460248201527f447565744272696467653a2064657374436861696e4964206d757374206e6f746044820152730818994818dd5c9c995b9d0818da185a5b881a5960621b6064820152608490fd5b80fd5b503461090f578060031936011261090f576097546040516001600160a01b039091168152602090f35b503461090f5760a036600319011261090f57610955611c38565b9061095e611c53565b91606435916001600160401b0390818416840361090f5760843591821161090f576109b361099f8686866109953660048901611de9565b9260443591612160565b604051918291602083526020830190611d53565b0390f35b503461090f578060031936011261090f5760206001600160401b03609b5460a01c164614604051908152f35b503461090f57602036600319011261090f576020906001600160a01b039060409082610a0d611c38565b16815260998452205416604051908152f35b503461090f578060031936011261090f57609b546040516001600160a01b039091168152602090f35b50608036600319011261090f57610a5d611c38565b90610a66611c69565b906044356001600160401b038111610d6e57610a86903690600401611d78565b606435946001600160a01b038616860361061357609b546001600160a01b03163303610e7757610ab4611f9d565b610abc611fe1565b466001600160401b03861614610e13576001600160401b0385168452609860205260408420546001600160a01b03908116911603610dc257610afd9161219c565b9693959190929460018060a01b0387168152609e602052604081206001600160401b0384168252602052604081206001600160401b038516825260205260ff604082205416610d72576001600160a01b038781168252609e602090815260408084206001600160401b03878116865290835281852090881685528252808420805460ff19166001179055888316845260999091528220541690610ba1821515611f51565b826001600160401b03609b5460a01c164614600014610cdd5760405163a9059cbb60e01b81526001600160a01b038a1660048201526024810191909152916020908390604490829085905af1908115610cd15750610c9095936001600160401b03937f7ac0a206467ed728f4138be477622d1be021717edcb453d22a360a0eaaa0f8fa9a96938593610ca2575b505b610c4084468516838c868f6120e7565b604080519182526001600160a01b039b8c166020830152998b169981019990995260608901521660808701521660a085015290931660c083015261010060e0830181905291928392830190611d53565b0390a160018055602060405160018152f35b610cc39060203d602011610cca575b610cbb8183611cf4565b810190612207565b5038610c2e565b503d610cb1565b604051903d90823e3d90fd5b5090803b15610d6e576040516340c10f1960e01b81526001600160a01b038916600482015260248101849052919081908390604490829084905af1908115610cd15750610c9095936001600160401b03937f7ac0a206467ed728f4138be477622d1be021717edcb453d22a360a0eaaa0f8fa9a96938593610d5f575b50610c30565b610d6890611cab565b38610d59565b5080fd5b60405162461bcd60e51b815260206004820152602260248201527f447565744272696467653a206e6f6e636520616c726561647920657865637574604482015261195960f21b6064820152608490fd5b60405162461bcd60e51b815260206004820152602360248201527f447565744272696467653a20496e76616c696420736f75726365436f6e74726160448201526263745f60e81b6064820152608490fd5b60405162461bcd60e51b815260206004820152603660248201527f447565744272696467653a20736f75726365436861696e4964206d757374206e6044820152751bdd0818994818dd5c9c995b9d0818da185a5b881a5960521b6064820152608490fd5b60405162461bcd60e51b815260206004820152602560248201527f447565744272696467653a2063616c6c6572206973206e6f74206d6573736167604482015264652062757360d81b6064820152608490fd5b503461090f57602036600319011261090f5760209060ff906040906001600160a01b03610ef5611c38565b168152609c84522054166040519015158152f35b503461090f57604036600319011261090f576001600160a01b03610f2b611c38565b168152609d6020526001600160401b0360018160408420541601818111610f9b57604051916020830190811183821017610f875791610f7a91602094610f7f9460405282526024353030612160565b612037565b604051908152f35b634e487b7160e01b84526041600452602484fd5b634e487b7160e01b83526011600452602483fd5b503461090f578060031936011261090f576040516109b391610fd082611cd9565b8152604051918291602083526020830190611d53565b503461090f578060031936011261090f5761100c60018060a01b03609754163314611e90565b611014611f9d565b600160ff1960655416176065557f62e78cea01bee320cd4e420270b5ea74000d11b0c9f74754ebdbfc544b05a2586020604051338152a180f35b503461090f57602036600319011261090f576020906001600160401b03906040906001600160a01b0361107f611c38565b168152609d8452205416604051908152f35b503461090f57602036600319011261090f576020906040906001600160a01b036110b9611c38565b168152609a83522054604051908152f35b503461090f57602036600319011261090f576111016110e7611c38565b6110fc60018060a01b03609754163314611e90565b612294565b80f35b503461090f57606036600319011261090f5761111e611c38565b611126611c53565b906044359060018060a01b03809161114382609754163314611e90565b1692611150841515611ecb565b83855260206099815282604087205416926001600160401b03609b5460a01c1646146000146112645785818416036111ed57917fece7f82265ab0a5bb623bd7f1ac97739336b066ba351f261645036ee833686a8959391608095935b8589526099825260408920921691826001600160601b0360a01b825416179055609a815283604089205560405194855284015260408301526060820152a180f35b60a4826040519062461bcd60e51b82526004820152604460248201527f447565744272696467653a2063757272656e74436861696e546f6b656e206d7560448201527f7374206265206f726967696e616c546f6b656e206f6e206f726967696e616c436064820152633430b4b760e11b6084820152fd5b604051630e7c1cb560e01b8082528483169184816004818d875af1801561070c5784918b91611420575b5016156113a657889160048592604051948593849283525af190811561139b57879183918a9161136e575b5016036112ee57917fece7f82265ab0a5bb623bd7f1ac97739336b066ba351f261645036ee833686a8959391608095936111ac565b60405162461bcd60e51b815260048101839052604c60248201527f447565744272696467653a206f726967696e616c546f6b656e206d757374206260448201527f6520657175616c20746f2063757272656e74436861696e546f6b656e2e6f726960648201526b67696e616c546f6b656e282960a01b608482015260a490fd5b61138e9150853d8711611394575b6113868183611cf4565b810190611f32565b386112b9565b503d61137c565b6040513d8a823e3d90fd5b60405162461bcd60e51b815260048101859052604660248201527f447565744272696467653a2063757272656e74436861696e546f6b656e2e6f7260448201527f6967696e616c546f6b656e2829206d757374206e6f74206265207a65726f206160648201526564647265737360d01b608482015260a490fd5b6114379150863d8811611394576113868183611cf4565b3861128e565b503461090f57602036600319011261090f576020906001600160401b03611462611c95565b16815260988252604060018060a01b0391205416604051908152f35b503461090f57602036600319011261090f57600435906001600160401b03821161090f576109b36114bb6114b53660048601611d78565b9061219c565b9160409593955195869586611da5565b503461090f57604036600319011261090f576114e5611c95565b6114ed611c53565b6097546001600160a01b03926001600160401b039161150f9085163314611e90565b169046821461157c575b907fe22443756684ba7bac145a9f501d71ce699f5de52506915cedfd37d049b09c98926060928286526098602052816040872054169160408720911690816001600160601b0360a01b82541617905560405192835260208301526040820152a180f35b90308383160361158c5790611519565b60405162461bcd60e51b815260206004820152602260248201527f447565744272696467653a20696e76616c696420636861696e436f6e74726163604482015261745f60f01b6064820152608490fd5b503461090f578060031936011261090f57602060ff606554166040519015158152f35b503461090f5760c036600319011261090f57611619611c38565b611621611c69565b906044356001600160a01b038116810361061357608435926001600160401b0394858516850361090f5760a435958616860361090f576020610f7f878760643587878a6120e7565b503461090f57606036600319011261090f5760ff604060209261168a611c38565b611692611c69565b61169a611c7f565b6001600160a01b039092168352609e86528383206001600160401b03918216845286528383209116825284522054604051911615158152f35b503461090f578060031936011261090f576116f960018060a01b03609754163314611e90565b60655460ff8116156117395760ff19166065557f5db9ee0a495bf2e6ff9c91a7834c1ba4fdd244a5e8aa4e537bd38aeae4b073aa6020604051338152a180f35b60405162461bcd60e51b815260206004820152601460248201527314185d5cd8589b194e881b9bdd081c185d5cd95960621b6044820152606490fd5b503461090f578060031936011261090f5761178e611fe1565b6117a360018060a01b03609754163314611e90565b4780156117ff5781808080843382f1156117f2576040805133815260208101929092527fd19e28ee083b463a924fd7df1368ee8be2921ec348d9fbe8b0768ae25659e29b9190819081016105e0565b50604051903d90823e3d90fd5b60405162461bcd60e51b815260206004820152601f60248201527f447565744272696467653a206e6f7468696e6720746f207265747269657665006044820152606490fd5b503461090f57602036600319011261090f5761185e611c38565b6097546001600160a01b0391906118789083163314611e90565b16808252609c6020527f4551b33a2379951e61601461c9f15e88df190c1e6f7014cb4a87af3fce2cd39c606060ff6040852054166040519084825285602083015215156040820152a18152609c60205260408120805460ff1916905580f35b503461090f57602036600319011261090f576118f1611c38565b6097546001600160a01b03919061190b9083163314611e90565b16808252609c6020527f4551b33a2379951e61601461c9f15e88df190c1e6f7014cb4a87af3fce2cd39c606060ff604085205416604051908482526001602083015215156040820152a18152609c60205260408120805460ff1916600117905580f35b503461090f578060031936011261090f576109b360405161198e81611cbe565b600681526552454445454d60d01b6020820152604051918291602083526020830190611d53565b503461090f57604036600319011261090f576119cf611c38565b6119d7611c69565b9082549160ff8360081c161591828093611c03575b8015611bec575b15611b905760ff1984811660011786559383611b7f575b506001600160401b03821615611b27576001600160a01b03168015611aca57609b54916001600160401b0360a01b9060a01b169163ffffffff60e01b161717609b55611a5533612294565b825491611a8660ff8460081c16611a6b81611e30565b611a7481611e30565b60018055611a8181611e30565b611e30565b60655416606555611a95575080f35b61ff00191681557f7f26b83ff96e1f2b6a682f133852f6798a09c465da95921460cefb3847402498602060405160018152a180f35b60405162461bcd60e51b815260206004820152602f60248201527f447565744272696467653a206d657373616765427573206d757374206e6f742060448201526e6265207a65726f206164647265737360881b6064820152608490fd5b60405162461bcd60e51b815260206004820152602a60248201527f447565744272696467653a20636861696e4964206d75737420626520677265616044820152690746572207468616e20360b41b6064820152608490fd5b61ffff191661010117855538611a0a565b60405162461bcd60e51b815260206004820152602e60248201527f496e697469616c697a61626c653a20636f6e747261637420697320616c72656160448201526d191e481a5b9a5d1a585b1a5e995960921b6064820152608490fd5b50303b1580156119f35750600160ff8516146119f3565b50600160ff8516106119ec565b905034610d6e5781600319360112610d6e576020906001600160401b03609b5460a01c168152f35b600435906001600160a01b0382168203611c4e57565b600080fd5b602435906001600160a01b0382168203611c4e57565b602435906001600160401b0382168203611c4e57565b604435906001600160401b0382168203611c4e57565b600435906001600160401b0382168203611c4e57565b6001600160401b03811161069b57604052565b604081019081106001600160401b0382111761069b57604052565b602081019081106001600160401b0382111761069b57604052565b90601f801991011681019081106001600160401b0382111761069b57604052565b6001600160401b03811161069b57601f01601f191660200190565b60005b838110611d435750506000910152565b8181015183820152602001611d33565b90602091611d6c81518092818552858086019101611d30565b601f01601f1916010190565b9181601f84011215611c4e578235916001600160401b038311611c4e5760208381860195010111611c4e57565b6001600160a01b0391821681529116602082015260408101919091526001600160401b03909116606082015260a060808201819052611de692910190611d53565b90565b81601f82011215611c4e57803590611e0082611d15565b92611e0e6040519485611cf4565b82845260208383010111611c4e57816000926020809301838601378301015290565b15611e3757565b60405162461bcd60e51b815260206004820152602b60248201527f496e697469616c697a61626c653a20636f6e7472616374206973206e6f74206960448201526a6e697469616c697a696e6760a81b6064820152608490fd5b15611e9757565b60405162461bcd60e51b815260206004820152600c60248201526b15539055551213d49256915160a21b6044820152606490fd5b15611ed257565b60405162461bcd60e51b815260206004820152603260248201527f447565744272696467653a206f726967696e616c546f6b656e206d757374206e6044820152716f74206265207a65726f206164647265737360701b6064820152608490fd5b90816020910312611c4e57516001600160a01b0381168103611c4e5790565b15611f5857565b60405162461bcd60e51b815260206004820152601f60248201527f447565744272696467653a20746f6b656e206e6f7420737570706f72746564006044820152606490fd5b60ff60655416611fa957565b60405162461bcd60e51b815260206004820152601060248201526f14185d5cd8589b194e881c185d5cd95960821b6044820152606490fd5b600260015414611ff2576002600155565b60405162461bcd60e51b815260206004820152601f60248201527f5265656e7472616e637947756172643a207265656e7472616e742063616c6c006044820152606490fd5b602061206a9160018060a01b03609b5416604051808095819463299aee5160e11b83528660048401526024830190611d53565b03915afa9081156120db576000916120aa575b506003810290808204600314901517156120945790565b634e487b7160e01b600052601160045260246000fd5b906020823d82116120d3575b816120c360209383611cf4565b8101031261090f5750513861207d565b3d91506120b6565b6040513d6000823e3d90fd5b949192936040519460208601966001600160601b0319809160601b1688526001600160401b0360c01b9586809560c01b16603489015260601b16603c870152605086015260c01b16607084015260c01b16607882015260608152608081018181106001600160401b0382111761069b5760405251902090565b9193611de69361217a929560405196879560208701611da5565b03601f198101835282611cf4565b35906001600160a01b0382168203611c4e57565b90810160a082820312611c4e576121b282612188565b6121be60208401612188565b936060840135926001600160401b038085168503611c4e576080860135908111611c4e576040916121f0918701611de9565b6001600160a01b0393841696909316940135929190565b90816020910312611c4e57518015158103611c4e5790565b919290156122815750815115612233575090565b3b1561223c5790565b60405162461bcd60e51b815260206004820152601d60248201527f416464726573733a2063616c6c20746f206e6f6e2d636f6e74726163740000006044820152606490fd5b8251909150156107655750805190602001fd5b6001600160a01b031680156122dd57609780546001600160a01b03191682179055337f101b8081ff3b56bbf45deb824d86a3b0fd38b7e3dd42421105cf8abe9106db0b600080a3565b60405162461bcd60e51b815260206004820152602160248201527f43616e206e6f74207365742061646d696e20746f207a65726f206164647265736044820152607360f81b6064820152608490fdfea2646970667358221220d6ba8b61aaac733a786b3a6cd769f8e20087d151938f6af0f9a11e0a41f1556164736f6c63430008110033",
  "devdoc": {
    "details": "This contract is used to transfer token from source chain to destination chainnomenclatures: - sourceChain: the chain where token transfer from. - originalChain: the chain where token initial supplied. (for duet token family, it's bsc) - destinationChain: the chain where token transfer to. - originalToken address: the token address on originalChain.",
    "kind": "dev",
    "methods": {
      "paused()": {
        "details": "Returns true if the contract is paused, and false otherwise."
      },
      "transferX(address,uint256,uint64)": {
        "details": "called by users on source chain to send tokens to destination chain"
      }
    },
    "title": "SourceChainBridge",
    "version": 1
  },
  "userdoc": {
    "kind": "user",
    "methods": {},
    "version": 1
  },
  "storageLayout": {
    "storage": [
      {
        "astId": 6,
        "contract": "contracts/DuetBridge.sol:DuetBridge",
        "label": "_initialized",
        "offset": 0,
        "slot": "0",
        "type": "t_uint8"
      },
      {
        "astId": 9,
        "contract": "contracts/DuetBridge.sol:DuetBridge",
        "label": "_initializing",
        "offset": 1,
        "slot": "0",
        "type": "t_bool"
      },
      {
        "astId": 309,
        "contract": "contracts/DuetBridge.sol:DuetBridge",
        "label": "_status",
        "offset": 0,
        "slot": "1",
        "type": "t_uint256"
      },
      {
        "astId": 367,
        "contract": "contracts/DuetBridge.sol:DuetBridge",
        "label": "__gap",
        "offset": 0,
        "slot": "2",
        "type": "t_array(t_uint256)49_storage"
      },
      {
        "astId": 1113,
        "contract": "contracts/DuetBridge.sol:DuetBridge",
        "label": "__gap",
        "offset": 0,
        "slot": "51",
        "type": "t_array(t_uint256)50_storage"
      },
      {
        "astId": 189,
        "contract": "contracts/DuetBridge.sol:DuetBridge",
        "label": "_paused",
        "offset": 0,
        "slot": "101",
        "type": "t_bool"
      },
      {
        "astId": 294,
        "contract": "contracts/DuetBridge.sol:DuetBridge",
        "label": "__gap",
        "offset": 0,
        "slot": "102",
        "type": "t_array(t_uint256)49_storage"
      },
      {
        "astId": 5596,
        "contract": "contracts/DuetBridge.sol:DuetBridge",
        "label": "admin",
        "offset": 0,
        "slot": "151",
        "type": "t_address"
      },
      {
        "astId": 4432,
        "contract": "contracts/DuetBridge.sol:DuetBridge",
        "label": "chainContractMapping",
        "offset": 0,
        "slot": "152",
        "type": "t_mapping(t_uint64,t_address)"
      },
      {
        "astId": 4436,
        "contract": "contracts/DuetBridge.sol:DuetBridge",
        "label": "tokenMapping",
        "offset": 0,
        "slot": "153",
        "type": "t_mapping(t_address,t_address)"
      },
      {
        "astId": 4440,
        "contract": "contracts/DuetBridge.sol:DuetBridge",
        "label": "tokenMinTransfer",
        "offset": 0,
        "slot": "154",
        "type": "t_mapping(t_address,t_uint256)"
      },
      {
        "astId": 4442,
        "contract": "contracts/DuetBridge.sol:DuetBridge",
        "label": "messageBus",
        "offset": 0,
        "slot": "155",
        "type": "t_address"
      },
      {
        "astId": 4444,
        "contract": "contracts/DuetBridge.sol:DuetBridge",
        "label": "originalChainId",
        "offset": 20,
        "slot": "155",
        "type": "t_uint64"
      },
      {
        "astId": 4448,
        "contract": "contracts/DuetBridge.sol:DuetBridge",
        "label": "executors",
        "offset": 0,
        "slot": "156",
        "type": "t_mapping(t_address,t_bool)"
      },
      {
        "astId": 4452,
        "contract": "contracts/DuetBridge.sol:DuetBridge",
        "label": "nonces",
        "offset": 0,
        "slot": "157",
        "type": "t_mapping(t_address,t_uint64)"
      },
      {
        "astId": 4460,
        "contract": "contracts/DuetBridge.sol:DuetBridge",
        "label": "receivedNonces",
        "offset": 0,
        "slot": "158",
        "type": "t_mapping(t_address,t_mapping(t_uint64,t_mapping(t_uint64,t_bool)))"
      }
    ],
    "types": {
      "t_address": {
        "encoding": "inplace",
        "label": "address",
        "numberOfBytes": "20"
      },
      "t_array(t_uint256)49_storage": {
        "base": "t_uint256",
        "encoding": "inplace",
        "label": "uint256[49]",
        "numberOfBytes": "1568"
      },
      "t_array(t_uint256)50_storage": {
        "base": "t_uint256",
        "encoding": "inplace",
        "label": "uint256[50]",
        "numberOfBytes": "1600"
      },
      "t_bool": {
        "encoding": "inplace",
        "label": "bool",
        "numberOfBytes": "1"
      },
      "t_mapping(t_address,t_address)": {
        "encoding": "mapping",
        "key": "t_address",
        "label": "mapping(address => address)",
        "numberOfBytes": "32",
        "value": "t_address"
      },
      "t_mapping(t_address,t_bool)": {
        "encoding": "mapping",
        "key": "t_address",
        "label": "mapping(address => bool)",
        "numberOfBytes": "32",
        "value": "t_bool"
      },
      "t_mapping(t_address,t_mapping(t_uint64,t_mapping(t_uint64,t_bool)))": {
        "encoding": "mapping",
        "key": "t_address",
        "label": "mapping(address => mapping(uint64 => mapping(uint64 => bool)))",
        "numberOfBytes": "32",
        "value": "t_mapping(t_uint64,t_mapping(t_uint64,t_bool))"
      },
      "t_mapping(t_address,t_uint256)": {
        "encoding": "mapping",
        "key": "t_address",
        "label": "mapping(address => uint256)",
        "numberOfBytes": "32",
        "value": "t_uint256"
      },
      "t_mapping(t_address,t_uint64)": {
        "encoding": "mapping",
        "key": "t_address",
        "label": "mapping(address => uint64)",
        "numberOfBytes": "32",
        "value": "t_uint64"
      },
      "t_mapping(t_uint64,t_address)": {
        "encoding": "mapping",
        "key": "t_uint64",
        "label": "mapping(uint64 => address)",
        "numberOfBytes": "32",
        "value": "t_address"
      },
      "t_mapping(t_uint64,t_bool)": {
        "encoding": "mapping",
        "key": "t_uint64",
        "label": "mapping(uint64 => bool)",
        "numberOfBytes": "32",
        "value": "t_bool"
      },
      "t_mapping(t_uint64,t_mapping(t_uint64,t_bool))": {
        "encoding": "mapping",
        "key": "t_uint64",
        "label": "mapping(uint64 => mapping(uint64 => bool))",
        "numberOfBytes": "32",
        "value": "t_mapping(t_uint64,t_bool)"
      },
      "t_uint256": {
        "encoding": "inplace",
        "label": "uint256",
        "numberOfBytes": "32"
      },
      "t_uint64": {
        "encoding": "inplace",
        "label": "uint64",
        "numberOfBytes": "8"
      },
      "t_uint8": {
        "encoding": "inplace",
        "label": "uint8",
        "numberOfBytes": "1"
      }
    }
  }
}