{
  "address": "0x72c84f279A35d17eeFDD588e212ad8624040E750",
  "abi": [
    {
      "inputs": [],
      "stateMutability": "nonpayable",
      "type": "constructor"
    },
    {
      "anonymous": false,
      "inputs": [
        {
          "indexed": true,
          "internalType": "address",
          "name": "user",
          "type": "address"
        },
        {
          "indexed": true,
          "internalType": "address",
          "name": "newAdmin",
          "type": "address"
        }
      ],
      "name": "AdminUpdated",
      "type": "event"
    },
    {
      "anonymous": false,
      "inputs": [
        {
          "indexed": false,
          "internalType": "uint64",
          "name": "chainId",
          "type": "uint64"
        },
        {
          "indexed": false,
          "internalType": "address",
          "name": "chainContract",
          "type": "address"
        },
        {
          "indexed": false,
          "internalType": "address",
          "name": "previousChainContract",
          "type": "address"
        }
      ],
      "name": "ChainAdded",
      "type": "event"
    },
    {
      "anonymous": false,
      "inputs": [
        {
          "indexed": false,
          "internalType": "address",
          "name": "executor",
          "type": "address"
        },
        {
          "indexed": false,
          "internalType": "bool",
          "name": "enabled",
          "type": "bool"
        },
        {
          "indexed": false,
          "internalType": "bool",
          "name": "previousEnabled",
          "type": "bool"
        }
      ],
      "name": "ExecutorChanged",
      "type": "event"
    },
    {
      "anonymous": false,
      "inputs": [
        {
          "indexed": false,
          "internalType": "uint8",
          "name": "version",
          "type": "uint8"
        }
      ],
      "name": "Initialized",
      "type": "event"
    },
    {
      "anonymous": false,
      "inputs": [
        {
          "indexed": false,
          "internalType": "address",
          "name": "operator",
          "type": "address"
        },
        {
          "indexed": false,
          "internalType": "uint256",
          "name": "amount",
          "type": "uint256"
        }
      ],
      "name": "NativeBalanceRetrieved",
      "type": "event"
    },
    {
      "anonymous": false,
      "inputs": [
        {
          "indexed": false,
          "internalType": "address",
          "name": "account",
          "type": "address"
        }
      ],
      "name": "Paused",
      "type": "event"
    },
    {
      "anonymous": false,
      "inputs": [
        {
          "indexed": false,
          "internalType": "bytes32",
          "name": "transferId",
          "type": "bytes32"
        },
        {
          "indexed": false,
          "internalType": "address",
          "name": "sender",
          "type": "address"
        },
        {
          "indexed": false,
          "internalType": "address",
          "name": "token",
          "type": "address"
        },
        {
          "indexed": false,
          "internalType": "uint256",
          "name": "amount",
          "type": "uint256"
        },
        {
          "indexed": false,
          "internalType": "uint64",
          "name": "sourceChainId",
          "type": "uint64"
        },
        {
          "indexed": false,
          "internalType": "uint64",
          "name": "nonce",
          "type": "uint64"
        },
        {
          "indexed": false,
          "internalType": "address",
          "name": "executor",
          "type": "address"
        },
        {
          "indexed": false,
          "internalType": "bytes",
          "name": "action",
          "type": "bytes"
        }
      ],
      "name": "ReceiveX",
      "type": "event"
    },
    {
      "anonymous": false,
      "inputs": [
        {
          "indexed": false,
          "internalType": "address",
          "name": "originalToken",
          "type": "address"
        },
        {
          "indexed": false,
          "internalType": "address",
          "name": "token",
          "type": "address"
        },
        {
          "indexed": false,
          "internalType": "address",
          "name": "previousToken",
          "type": "address"
        },
        {
          "indexed": false,
          "internalType": "uint256",
          "name": "minTransferAmount",
          "type": "uint256"
        }
      ],
      "name": "TokenAdded",
      "type": "event"
    },
    {
      "anonymous": false,
      "inputs": [
        {
          "indexed": false,
          "internalType": "bytes32",
          "name": "transferId",
          "type": "bytes32"
        },
        {
          "indexed": false,
          "internalType": "address",
          "name": "sender",
          "type": "address"
        },
        {
          "indexed": false,
          "internalType": "address",
          "name": "token",
          "type": "address"
        },
        {
          "indexed": false,
          "internalType": "uint256",
          "name": "amount",
          "type": "uint256"
        },
        {
          "indexed": false,
          "internalType": "uint64",
          "name": "destChainId",
          "type": "uint64"
        },
        {
          "indexed": false,
          "internalType": "uint64",
          "name": "nonce",
          "type": "uint64"
        },
        {
          "indexed": false,
          "internalType": "uint256",
          "name": "userFees",
          "type": "uint256"
        },
        {
          "indexed": false,
          "internalType": "uint256",
          "name": "fees",
          "type": "uint256"
        },
        {
          "indexed": false,
          "internalType": "bytes",
          "name": "action",
          "type": "bytes"
        }
      ],
      "name": "TransferX",
      "type": "event"
    },
    {
      "anonymous": false,
      "inputs": [
        {
          "indexed": false,
          "internalType": "address",
          "name": "account",
          "type": "address"
        }
      ],
      "name": "Unpaused",
      "type": "event"
    },
    {
      "inputs": [],
      "name": "ACTION_REDEEM_X",
      "outputs": [
        {
          "internalType": "bytes",
          "name": "",
          "type": "bytes"
        }
      ],
      "stateMutability": "view",
      "type": "function"
    },
    {
      "inputs": [],
      "name": "ACTION_TRANSFER_X",
      "outputs": [
        {
          "internalType": "bytes",
          "name": "",
          "type": "bytes"
        }
      ],
      "stateMutability": "view",
      "type": "function"
    },
    {
      "inputs": [
        {
          "internalType": "uint64",
          "name": "chainId_",
          "type": "uint64"
        },
        {
          "internalType": "address",
          "name": "chainContract_",
          "type": "address"
        }
      ],
      "name": "addChainContract",
      "outputs": [],
      "stateMutability": "nonpayable",
      "type": "function"
    },
    {
      "inputs": [
        {
          "internalType": "address",
          "name": "executor_",
          "type": "address"
        }
      ],
      "name": "addExecutor",
      "outputs": [],
      "stateMutability": "nonpayable",
      "type": "function"
    },
    {
      "inputs": [
        {
          "internalType": "address",
          "name": "originalToken_",
          "type": "address"
        },
        {
          "internalType": "address",
          "name": "currentChainToken_",
          "type": "address"
        },
        {
          "internalType": "uint256",
          "name": "minTransferAmount_",
          "type": "uint256"
        }
      ],
      "name": "addToken",
      "outputs": [],
      "stateMutability": "nonpayable",
      "type": "function"
    },
    {
      "inputs": [],
      "name": "admin",
      "outputs": [
        {
          "internalType": "address",
          "name": "",
          "type": "address"
        }
      ],
      "stateMutability": "view",
      "type": "function"
    },
    {
      "inputs": [
        {
          "internalType": "uint64",
          "name": "",
          "type": "uint64"
        }
      ],
      "name": "chainContractMapping",
      "outputs": [
        {
          "internalType": "address",
          "name": "",
          "type": "address"
        }
      ],
      "stateMutability": "view",
      "type": "function"
    },
    {
      "inputs": [
        {
          "internalType": "address",
          "name": "user_",
          "type": "address"
        },
        {
          "internalType": "uint64",
          "name": "sourceChainId_",
          "type": "uint64"
        },
        {
          "internalType": "address",
          "name": "originalToken_",
          "type": "address"
        },
        {
          "internalType": "uint256",
          "name": "amount_",
          "type": "uint256"
        },
        {
          "internalType": "uint64",
          "name": "destChainId_",
          "type": "uint64"
        },
        {
          "internalType": "uint64",
          "name": "nonce_",
          "type": "uint64"
        }
      ],
      "name": "computeTransferId",
      "outputs": [
        {
          "internalType": "bytes32",
          "name": "",
          "type": "bytes32"
        }
      ],
      "stateMutability": "pure",
      "type": "function"
    },
    {
      "inputs": [
        {
          "internalType": "bytes",
          "name": "message_",
          "type": "bytes"
        }
      ],
      "name": "decodeMessage",
      "outputs": [
        {
          "internalType": "address",
          "name": "user_",
          "type": "address"
        },
        {
          "internalType": "address",
          "name": "originalToken_",
          "type": "address"
        },
        {
          "internalType": "uint256",
          "name": "amount_",
          "type": "uint256"
        },
        {
          "internalType": "uint64",
          "name": "nonce",
          "type": "uint64"
        },
        {
          "internalType": "bytes",
          "name": "action_",
          "type": "bytes"
        }
      ],
      "stateMutability": "pure",
      "type": "function"
    },
    {
      "inputs": [
        {
          "internalType": "address",
          "name": "user_",
          "type": "address"
        },
        {
          "internalType": "address",
          "name": "originalToken_",
          "type": "address"
        },
        {
          "internalType": "uint256",
          "name": "amount_",
          "type": "uint256"
        },
        {
          "internalType": "uint64",
          "name": "nonce_",
          "type": "uint64"
        },
        {
          "internalType": "bytes",
          "name": "action_",
          "type": "bytes"
        }
      ],
      "name": "encodeMessage",
      "outputs": [
        {
          "internalType": "bytes",
          "name": "",
          "type": "bytes"
        }
      ],
      "stateMutability": "pure",
      "type": "function"
    },
    {
      "inputs": [
        {
          "internalType": "address",
          "name": "sourceContract_",
          "type": "address"
        },
        {
          "internalType": "uint64",
          "name": "sourceChainId_",
          "type": "uint64"
        },
        {
          "internalType": "bytes",
          "name": "message_",
          "type": "bytes"
        },
        {
          "internalType": "address",
          "name": "executor_",
          "type": "address"
        }
      ],
      "name": "executeMessage",
      "outputs": [
        {
          "internalType": "enum IMessageReceiverApp.ExecutionStatus",
          "name": "",
          "type": "uint8"
        }
      ],
      "stateMutability": "payable",
      "type": "function"
    },
    {
      "inputs": [
        {
          "internalType": "address",
          "name": "",
          "type": "address"
        }
      ],
      "name": "executors",
      "outputs": [
        {
          "internalType": "bool",
          "name": "",
          "type": "bool"
        }
      ],
      "stateMutability": "view",
      "type": "function"
    },
    {
      "inputs": [
        {
          "internalType": "address",
          "name": "user_",
          "type": "address"
        },
        {
          "internalType": "uint256",
          "name": "amount_",
          "type": "uint256"
        }
      ],
      "name": "getTransferXFee",
      "outputs": [
        {
          "internalType": "uint256",
          "name": "",
          "type": "uint256"
        }
      ],
      "stateMutability": "view",
      "type": "function"
    },
    {
      "inputs": [
        {
          "internalType": "address",
          "name": "messageBus_",
          "type": "address"
        },
        {
          "internalType": "uint64",
          "name": "originalChainId_",
          "type": "uint64"
        }
      ],
      "name": "initialize",
      "outputs": [],
      "stateMutability": "nonpayable",
      "type": "function"
    },
    {
      "inputs": [],
      "name": "isOriginalChain",
      "outputs": [
        {
          "internalType": "bool",
          "name": "",
          "type": "bool"
        }
      ],
      "stateMutability": "view",
      "type": "function"
    },
    {
      "inputs": [],
      "name": "messageBus",
      "outputs": [
        {
          "internalType": "address",
          "name": "",
          "type": "address"
        }
      ],
      "stateMutability": "view",
      "type": "function"
    },
    {
      "inputs": [
        {
          "internalType": "address",
          "name": "",
          "type": "address"
        }
      ],
      "name": "nonces",
      "outputs": [
        {
          "internalType": "uint64",
          "name": "",
          "type": "uint64"
        }
      ],
      "stateMutability": "view",
      "type": "function"
    },
    {
      "inputs": [],
      "name": "originalChainId",
      "outputs": [
        {
          "internalType": "uint64",
          "name": "",
          "type": "uint64"
        }
      ],
      "stateMutability": "view",
      "type": "function"
    },
    {
      "inputs": [],
      "name": "pause",
      "outputs": [],
      "stateMutability": "nonpayable",
      "type": "function"
    },
    {
      "inputs": [],
      "name": "paused",
      "outputs": [
        {
          "internalType": "bool",
          "name": "",
          "type": "bool"
        }
      ],
      "stateMutability": "view",
      "type": "function"
    },
    {
      "inputs": [
        {
          "internalType": "address",
          "name": "",
          "type": "address"
        },
        {
          "internalType": "uint64",
          "name": "",
          "type": "uint64"
        },
        {
          "internalType": "uint64",
          "name": "",
          "type": "uint64"
        }
      ],
      "name": "receivedNonces",
      "outputs": [
        {
          "internalType": "bool",
          "name": "",
          "type": "bool"
        }
      ],
      "stateMutability": "view",
      "type": "function"
    },
    {
      "inputs": [
        {
          "internalType": "address",
          "name": "executor_",
          "type": "address"
        }
      ],
      "name": "removeExecutor",
      "outputs": [],
      "stateMutability": "nonpayable",
      "type": "function"
    },
    {
      "inputs": [],
      "name": "retrieveNativeBalance",
      "outputs": [],
      "stateMutability": "nonpayable",
      "type": "function"
    },
    {
      "inputs": [
        {
          "internalType": "address",
          "name": "newAdmin",
          "type": "address"
        }
      ],
      "name": "setAdmin",
      "outputs": [],
      "stateMutability": "nonpayable",
      "type": "function"
    },
    {
      "inputs": [
        {
          "internalType": "address",
          "name": "",
          "type": "address"
        }
      ],
      "name": "tokenMapping",
      "outputs": [
        {
          "internalType": "address",
          "name": "",
          "type": "address"
        }
      ],
      "stateMutability": "view",
      "type": "function"
    },
    {
      "inputs": [
        {
          "internalType": "address",
          "name": "",
          "type": "address"
        }
      ],
      "name": "tokenMinTransfer",
      "outputs": [
        {
          "internalType": "uint256",
          "name": "",
          "type": "uint256"
        }
      ],
      "stateMutability": "view",
      "type": "function"
    },
    {
      "inputs": [
        {
          "internalType": "address",
          "name": "originalToken_",
          "type": "address"
        },
        {
          "internalType": "uint256",
          "name": "amount_",
          "type": "uint256"
        },
        {
          "internalType": "uint64",
          "name": "destChainId_",
          "type": "uint64"
        }
      ],
      "name": "transferX",
      "outputs": [],
      "stateMutability": "payable",
      "type": "function"
    },
    {
      "inputs": [],
      "name": "unpause",
      "outputs": [],
      "stateMutability": "nonpayable",
      "type": "function"
    }
  ],
  "transactionHash": "0x881cffec38da5f3afe5657a0d3644576a892336fbb16952d0b0946e8b67d81af",
  "args": [],
  "numDeployments": 3,
  "solcInputHash": "0fe8beda8f9c8a29bf7c9b24ff2afc2f",
  "bytecode": "0x608080604052346100c1576000549060ff8260081c1661006f575060ff80821610610034575b6040516123bd90816100c78239f35b60ff90811916176000557f7f26b83ff96e1f2b6a682f133852f6798a09c465da95921460cefb3847402498602060405160ff8152a138610025565b62461bcd60e51b815260206004820152602760248201527f496e697469616c697a61626c653a20636f6e747261637420697320696e697469604482015266616c697a696e6760c81b6064820152608490fd5b600080fdfe608080604052600436101561001357600080fd5b600090813560e01c9081630d788c3614611ad3575080631798de81146118785780631a8fcb2e146118315780631f5a0bbe1461179a57806324788429146117075780633446595a146116385780633f4ba83a14611596578063422f84061461152c5780634c01c6d3146114c25780635c975abb1461149f5780635cf15e511461138e578063634d45b21461134157806364ef63e7146113005780636daa985014610fc7578063704b6c0214610f8d5780637d1ba88814610f545780637ecebe0014610f115780638456cb5914610ea957806393c8ceeb14610e7257806397c5a0ef14610dcc5780639ac2a01114610d8d5780639c649fdf1461090b578063a1a227fa146108e2578063ba27f50b146108a6578063ba2df5161461087a578063cafee3ef146107fe578063f851a440146107d55763fd5cd8861461015557600080fd5b60603660031901126107d257610169611afb565b610171611b42565b906040519161017f83611b9c565b83835261018a611e90565b610192611ed4565b466001600160401b03821614610770576101b66001600160a01b0383161515611d8e565b6001600160a01b0382168452609a6020526040842054610248906101d981611f2a565b9061023e604860405180947f447565744272696467653a20616d6f756e74206d757374206265206772656174602083015267032b9103a3430b7160c51b604083015261022e8151809260208686019101611bf3565b8101036028810185520183611bb7565b6024351015611e14565b6001600160a01b03828116855260996020526040852054169261026c841515611e44565b6001600160401b0382168552609860205260408520546001600160a01b0316801561071f57338652609d60205260408620948554906001600160401b038083161461070b5767ffffffffffffffff1982166001600160401b039283166001019283169081179097556102e3848360243589336121bb565b6103686102ef82612092565b6102f881611f2a565b90610360604b60405180947f447565744272696467653a206d73672e76616c7565206d75737420626520677260208301526a032b0ba32b9103a3430b7160ad1b60408301526103508151809260208686019101611bf3565b810103602b810185520183611bb7565b341015611e14565b609b54936040519463299aee5160e11b865260206004870152602086806103926024820187611c16565b03816001600160a01b0385165afa958615610700578b966106c1575b506001600160401b039060a01c164614600014610657576040516323b872dd60e01b60208201523360248201523060448201526024356064820152606481528060a08101106001600160401b0360a083011117610641578a938160a0610489930160405261041e60a08201611b81565b602060a08201527f5361666545524332303a206c6f772d6c6576656c2063616c6c206661696c656460c0820152858082516020840182865af13d156106375760a03d9261046a84611bd8565b936104786040519586611bb7565b84523d89602086013e5b019261227a565b8051806105bd575b50505b609b546001600160a01b031690813b156105b957839188876001600160401b03936104e860405197889687958694634f9e72ad60e11b86526004860152166024840152606060448401526064830190611c16565b03925af180156105ae57610590575b5050907f233c30008ab27773800e29a9de8de32e730d4f804336a75b9db94ee6a37c09fd956001600160401b0361053a6105869594876024358a85461633612142565b95604051978897885233602089015260018060a01b03166040880152602435606088015216608086015260a08501523460c085015260e084015261012080610100850152830190611c16565b0390a16001805580f35b61059d9094939294611b6e565b6105aa57909186386104f7565b8680fd5b6040513d84823e3d90fd5b8380fd5b6105d1929450602080918301019101612262565b156105df5788913880610491565b60405162461bcd60e51b815260206004820152602a60248201527f5361666545524332303a204552433230206f7065726174696f6e20646964206e6044820152691bdd081cdd58d8d9595960b21b6064820152608490fd5b60a0606092610482565b634e487b7160e01b600052604160045260246000fd5b9091803b156106bd5760405163079cc67960e41b81523360048201526024803590820152908a908290604490829084905af180156106b25761069d575b50908891610494565b6106aa9099919299611b6e565b979038610694565b6040513d8c823e3d90fd5b8980fd5b9095506020813d6020116106f8575b816106dd60209383611bb7565b810103126106f45751946001600160401b036103ae565b8a80fd5b3d91506106d0565b6040513d8d823e3d90fd5b634e487b7160e01b88526011600452602488fd5b60405162461bcd60e51b815260206004820152602360248201527f447565744272696467653a2064657374436861696e206e6f7420737570706f726044820152621d195960ea1b6064820152608490fd5b60405162461bcd60e51b815260206004820152603460248201527f447565744272696467653a2064657374436861696e4964206d757374206e6f746044820152730818994818dd5c9c995b9d0818da185a5b881a5960621b6064820152608490fd5b80fd5b50346107d257806003193601126107d2576097546040516001600160a01b039091168152602090f35b50346107d25760a03660031901126107d257610818611afb565b90610821611b16565b91606435916001600160401b039081841684036107d2576084359182116107d2576108766108628686866108583660048901611cac565b92604435916121bb565b604051918291602083526020830190611c16565b0390f35b50346107d257806003193601126107d25760206001600160401b03609b5460a01c164614604051908152f35b50346107d25760203660031901126107d2576020906001600160a01b0390604090826108d0611afb565b16815260998452205416604051908152f35b50346107d257806003193601126107d257609b546040516001600160a01b039091168152602090f35b5060803660031901126107d257610920611afb565b90610929611b2c565b906044356001600160401b038111610c3157610949903690600401611c3b565b606435946001600160a01b03861686036105b957609b546001600160a01b03163303610d3a57610977611e90565b61097f611ed4565b466001600160401b03861614610cd6576001600160401b0385168452609860205260408420546001600160a01b03908116911603610c85576109c0916121f7565b9693959190929460018060a01b0387168152609e602052604081206001600160401b0384168252602052604081206001600160401b038516825260205260ff604082205416610c35576001600160a01b038781168252609e602090815260408084206001600160401b03878116865290835281852090881685528252808420805460ff19166001179055888316845260999091528220541690610a64821515611e44565b826001600160401b03609b5460a01c164614600014610ba05760405163a9059cbb60e01b81526001600160a01b038a1660048201526024810191909152916020908390604490829085905af1908115610b945750610b5395936001600160401b03937f7ac0a206467ed728f4138be477622d1be021717edcb453d22a360a0eaaa0f8fa9a96938593610b65575b505b610b0384468516838c868f612142565b604080519182526001600160a01b039b8c166020830152998b169981019990995260608901521660808701521660a085015290931660c083015261010060e0830181905291928392830190611c16565b0390a160018055602060405160018152f35b610b869060203d602011610b8d575b610b7e8183611bb7565b810190612262565b5038610af1565b503d610b74565b604051903d90823e3d90fd5b5090803b15610c31576040516340c10f1960e01b81526001600160a01b038916600482015260248101849052919081908390604490829084905af1908115610b945750610b5395936001600160401b03937f7ac0a206467ed728f4138be477622d1be021717edcb453d22a360a0eaaa0f8fa9a96938593610c22575b50610af3565b610c2b90611b6e565b38610c1c565b5080fd5b60405162461bcd60e51b815260206004820152602260248201527f447565744272696467653a206e6f6e636520616c726561647920657865637574604482015261195960f21b6064820152608490fd5b60405162461bcd60e51b815260206004820152602360248201527f447565744272696467653a20496e76616c696420736f75726365436f6e74726160448201526263745f60e81b6064820152608490fd5b60405162461bcd60e51b815260206004820152603660248201527f447565744272696467653a20736f75726365436861696e4964206d757374206e6044820152751bdd0818994818dd5c9c995b9d0818da185a5b881a5960521b6064820152608490fd5b60405162461bcd60e51b815260206004820152602560248201527f447565744272696467653a2063616c6c6572206973206e6f74206d6573736167604482015264652062757360d81b6064820152608490fd5b50346107d25760203660031901126107d25760209060ff906040906001600160a01b03610db8611afb565b168152609c84522054166040519015158152f35b50346107d25760403660031901126107d2576001600160a01b03610dee611afb565b168152609d6020526001600160401b0360018160408420541601818111610e5e57604051916020830190811183821017610e4a5791610e3d91602094610e4294604052825260243530306121bb565b612092565b604051908152f35b634e487b7160e01b84526041600452602484fd5b634e487b7160e01b83526011600452602483fd5b50346107d257806003193601126107d25760405161087691610e9382611b9c565b8152604051918291602083526020830190611c16565b50346107d257806003193601126107d257610ecf60018060a01b03609754163314611d53565b610ed7611e90565b600160ff1960655416176065557f62e78cea01bee320cd4e420270b5ea74000d11b0c9f74754ebdbfc544b05a2586020604051338152a180f35b50346107d25760203660031901126107d2576020906001600160401b03906040906001600160a01b03610f42611afb565b168152609d8452205416604051908152f35b50346107d25760203660031901126107d2576020906040906001600160a01b03610f7c611afb565b168152609a83522054604051908152f35b50346107d25760203660031901126107d257610fc4610faa611afb565b610fbf60018060a01b03609754163314611d53565b6122ef565b80f35b50346107d25760603660031901126107d257610fe1611afb565b610fe9611b16565b906044359060018060a01b03809161100682609754163314611d53565b1692611013841515611d8e565b83855260206099815282604087205416926001600160401b03609b5460a01c1646146000146111275785818416036110b057917fece7f82265ab0a5bb623bd7f1ac97739336b066ba351f261645036ee833686a8959391608095935b8589526099825260408920921691826001600160601b0360a01b825416179055609a815283604089205560405194855284015260408301526060820152a180f35b60a4826040519062461bcd60e51b82526004820152604460248201527f447565744272696467653a2063757272656e74436861696e546f6b656e206d7560448201527f7374206265206f726967696e616c546f6b656e206f6e206f726967696e616c436064820152633430b4b760e11b6084820152fd5b604051630e7c1cb560e01b8082528483169184816004818d875af180156106b25784918b916112e3575b50161561126957889160048592604051948593849283525af190811561125e57879183918a91611231575b5016036111b157917fece7f82265ab0a5bb623bd7f1ac97739336b066ba351f261645036ee833686a89593916080959361106f565b60405162461bcd60e51b815260048101839052604c60248201527f447565744272696467653a206f726967696e616c546f6b656e206d757374206260448201527f6520657175616c20746f2063757272656e74436861696e546f6b656e2e6f726960648201526b67696e616c546f6b656e282960a01b608482015260a490fd5b6112519150853d8711611257575b6112498183611bb7565b810190611df5565b3861117c565b503d61123f565b6040513d8a823e3d90fd5b60405162461bcd60e51b815260048101859052604660248201527f447565744272696467653a2063757272656e74436861696e546f6b656e2e6f7260448201527f6967696e616c546f6b656e2829206d757374206e6f74206265207a65726f206160648201526564647265737360d01b608482015260a490fd5b6112fa9150863d8811611257576112498183611bb7565b38611151565b50346107d25760203660031901126107d2576020906001600160401b03611325611b58565b16815260988252604060018060a01b0391205416604051908152f35b50346107d25760203660031901126107d257600435906001600160401b0382116107d25761087661137e6113783660048601611c3b565b906121f7565b9160409593955195869586611c68565b50346107d25760403660031901126107d2576113a8611b58565b6113b0611b16565b6097546001600160a01b03926001600160401b03916113d29085163314611d53565b169046821461143f575b907fe22443756684ba7bac145a9f501d71ce699f5de52506915cedfd37d049b09c98926060928286526098602052816040872054169160408720911690816001600160601b0360a01b82541617905560405192835260208301526040820152a180f35b90308383160361144f57906113dc565b60405162461bcd60e51b815260206004820152602260248201527f447565744272696467653a20696e76616c696420636861696e436f6e74726163604482015261745f60f01b6064820152608490fd5b50346107d257806003193601126107d257602060ff606554166040519015158152f35b50346107d25760c03660031901126107d2576114dc611afb565b6114e4611b2c565b906044356001600160a01b03811681036105b957608435926001600160401b039485851685036107d25760a43595861686036107d2576020610e42878760643587878a612142565b50346107d25760603660031901126107d25760ff604060209261154d611afb565b611555611b2c565b61155d611b42565b6001600160a01b039092168352609e86528383206001600160401b03918216845286528383209116825284522054604051911615158152f35b50346107d257806003193601126107d2576115bc60018060a01b03609754163314611d53565b60655460ff8116156115fc5760ff19166065557f5db9ee0a495bf2e6ff9c91a7834c1ba4fdd244a5e8aa4e537bd38aeae4b073aa6020604051338152a180f35b60405162461bcd60e51b815260206004820152601460248201527314185d5cd8589b194e881b9bdd081c185d5cd95960621b6044820152606490fd5b50346107d257806003193601126107d257611651611ed4565b61166660018060a01b03609754163314611d53565b4780156116c25781808080843382f1156116b5576040805133815260208101929092527fd19e28ee083b463a924fd7df1368ee8be2921ec348d9fbe8b0768ae25659e29b919081908101610586565b50604051903d90823e3d90fd5b60405162461bcd60e51b815260206004820152601f60248201527f447565744272696467653a206e6f7468696e6720746f207265747269657665006044820152606490fd5b50346107d25760203660031901126107d257611721611afb565b6097546001600160a01b03919061173b9083163314611d53565b16808252609c6020527f4551b33a2379951e61601461c9f15e88df190c1e6f7014cb4a87af3fce2cd39c606060ff6040852054166040519084825285602083015215156040820152a18152609c60205260408120805460ff1916905580f35b50346107d25760203660031901126107d2576117b4611afb565b6097546001600160a01b0391906117ce9083163314611d53565b16808252609c6020527f4551b33a2379951e61601461c9f15e88df190c1e6f7014cb4a87af3fce2cd39c606060ff604085205416604051908482526001602083015215156040820152a18152609c60205260408120805460ff1916600117905580f35b50346107d257806003193601126107d25761087660405161185181611b81565b600681526552454445454d60d01b6020820152604051918291602083526020830190611c16565b50346107d25760403660031901126107d257611892611afb565b61189a611b2c565b9082549160ff8360081c161591828093611ac6575b8015611aaf575b15611a535760ff1984811660011786559383611a42575b506001600160401b038216156119ea576001600160a01b0316801561198d57609b54916001600160401b0360a01b9060a01b169163ffffffff60e01b161717609b55611918336122ef565b82549161194960ff8460081c1661192e81611cf3565b61193781611cf3565b6001805561194481611cf3565b611cf3565b60655416606555611958575080f35b61ff00191681557f7f26b83ff96e1f2b6a682f133852f6798a09c465da95921460cefb3847402498602060405160018152a180f35b60405162461bcd60e51b815260206004820152602f60248201527f447565744272696467653a206d657373616765427573206d757374206e6f742060448201526e6265207a65726f206164647265737360881b6064820152608490fd5b60405162461bcd60e51b815260206004820152602a60248201527f447565744272696467653a20636861696e4964206d75737420626520677265616044820152690746572207468616e20360b41b6064820152608490fd5b61ffff1916610101178555386118cd565b60405162461bcd60e51b815260206004820152602e60248201527f496e697469616c697a61626c653a20636f6e747261637420697320616c72656160448201526d191e481a5b9a5d1a585b1a5e995960921b6064820152608490fd5b50303b1580156118b65750600160ff8516146118b6565b50600160ff8516106118af565b905034610c315781600319360112610c31576020906001600160401b03609b5460a01c168152f35b600435906001600160a01b0382168203611b1157565b600080fd5b602435906001600160a01b0382168203611b1157565b602435906001600160401b0382168203611b1157565b604435906001600160401b0382168203611b1157565b600435906001600160401b0382168203611b1157565b6001600160401b03811161064157604052565b604081019081106001600160401b0382111761064157604052565b602081019081106001600160401b0382111761064157604052565b90601f801991011681019081106001600160401b0382111761064157604052565b6001600160401b03811161064157601f01601f191660200190565b60005b838110611c065750506000910152565b8181015183820152602001611bf6565b90602091611c2f81518092818552858086019101611bf3565b601f01601f1916010190565b9181601f84011215611b11578235916001600160401b038311611b115760208381860195010111611b1157565b6001600160a01b0391821681529116602082015260408101919091526001600160401b03909116606082015260a060808201819052611ca992910190611c16565b90565b81601f82011215611b1157803590611cc382611bd8565b92611cd16040519485611bb7565b82845260208383010111611b1157816000926020809301838601378301015290565b15611cfa57565b60405162461bcd60e51b815260206004820152602b60248201527f496e697469616c697a61626c653a20636f6e7472616374206973206e6f74206960448201526a6e697469616c697a696e6760a81b6064820152608490fd5b15611d5a57565b60405162461bcd60e51b815260206004820152600c60248201526b15539055551213d49256915160a21b6044820152606490fd5b15611d9557565b60405162461bcd60e51b815260206004820152603260248201527f447565744272696467653a206f726967696e616c546f6b656e206d757374206e6044820152716f74206265207a65726f206164647265737360701b6064820152608490fd5b90816020910312611b1157516001600160a01b0381168103611b115790565b15611e1c5750565b60405162461bcd60e51b815260206004820152908190611e40906024830190611c16565b0390fd5b15611e4b57565b60405162461bcd60e51b815260206004820152601f60248201527f447565744272696467653a20746f6b656e206e6f7420737570706f72746564006044820152606490fd5b60ff60655416611e9c57565b60405162461bcd60e51b815260206004820152601060248201526f14185d5cd8589b194e881c185d5cd95960821b6044820152606490fd5b600260015414611ee5576002600155565b60405162461bcd60e51b815260206004820152601f60248201527f5265656e7472616e637947756172643a207265656e7472616e742063616c6c006044820152606490fd5b806000917a184f03e93ff9f4daa797ed6e38ed64bf6a1f01000000000000000080821015612084575b506d04ee2d6d415b85acef810000000080831015612075575b50662386f26fc1000080831015612066575b506305f5e10080831015612057575b5061271080831015612048575b506064821015612038575b600a8092101561202e575b60019081602181860195611fc387611bd8565b96611fd16040519889611bb7565b808852611fe0601f1991611bd8565b01366020890137860101905b611ff8575b5050505090565b600019019083906f181899199a1a9b1b9c1cb0b131b232b360811b8282061a83530491821561202957919082611fec565b611ff1565b9160010191611fb0565b9190606460029104910191611fa5565b60049193920491019138611f9a565b60089193920491019138611f8d565b60109193920491019138611f7e565b60209193920491019138611f6c565b604093508104915038611f53565b60206120c59160018060a01b03609b5416604051808095819463299aee5160e11b83528660048401526024830190611c16565b03915afa90811561213657600091612105575b506003810290808204600314901517156120ef5790565b634e487b7160e01b600052601160045260246000fd5b906020823d821161212e575b8161211e60209383611bb7565b810103126107d2575051386120d8565b3d9150612111565b6040513d6000823e3d90fd5b949192936040519460208601966001600160601b0319809160601b1688526001600160401b0360c01b9586809560c01b16603489015260601b16603c870152605086015260c01b16607084015260c01b16607882015260608152608081018181106001600160401b038211176106415760405251902090565b9193611ca9936121d5929560405196879560208701611c68565b03601f198101835282611bb7565b35906001600160a01b0382168203611b1157565b90810160a082820312611b115761220d826121e3565b612219602084016121e3565b936060840135926001600160401b038085168503611b11576080860135908111611b115760409161224b918701611cac565b6001600160a01b0393841696909316940135929190565b90816020910312611b1157518015158103611b115790565b919290156122dc575081511561228e575090565b3b156122975790565b60405162461bcd60e51b815260206004820152601d60248201527f416464726573733a2063616c6c20746f206e6f6e2d636f6e74726163740000006044820152606490fd5b825190915015611e1c5750805190602001fd5b6001600160a01b0316801561233857609780546001600160a01b03191682179055337f101b8081ff3b56bbf45deb824d86a3b0fd38b7e3dd42421105cf8abe9106db0b600080a3565b60405162461bcd60e51b815260206004820152602160248201527f43616e206e6f74207365742061646d696e20746f207a65726f206164647265736044820152607360f81b6064820152608490fdfea26469706673582212208da54777f9a2564d5d1ac003dbd7f4bbca1f95efbbb24768313788958518a09364736f6c63430008110033",
  "devdoc": {
    "details": "This contract is used to transfer token from source chain to destination chainnomenclatures: - sourceChain: the chain where token transfer from. - originalChain: the chain where token initial supplied. (for duet token family, it's bsc) - destinationChain: the chain where token transfer to. - originalToken address: the token address on originalChain.",
    "kind": "dev",
    "methods": {
      "paused()": {
        "details": "Returns true if the contract is paused, and false otherwise."
      },
      "transferX(address,uint256,uint64)": {
        "details": "called by users on source chain to send tokens to destination chain"
      }
    },
    "title": "SourceChainBridge",
    "version": 1
  },
  "userdoc": {
    "kind": "user",
    "methods": {},
    "version": 1
  },
  "storageLayout": {
    "storage": [
      {
        "astId": 6,
        "contract": "contracts/DuetBridge.sol:DuetBridge",
        "label": "_initialized",
        "offset": 0,
        "slot": "0",
        "type": "t_uint8"
      },
      {
        "astId": 9,
        "contract": "contracts/DuetBridge.sol:DuetBridge",
        "label": "_initializing",
        "offset": 1,
        "slot": "0",
        "type": "t_bool"
      },
      {
        "astId": 309,
        "contract": "contracts/DuetBridge.sol:DuetBridge",
        "label": "_status",
        "offset": 0,
        "slot": "1",
        "type": "t_uint256"
      },
      {
        "astId": 367,
        "contract": "contracts/DuetBridge.sol:DuetBridge",
        "label": "__gap",
        "offset": 0,
        "slot": "2",
        "type": "t_array(t_uint256)49_storage"
      },
      {
        "astId": 1113,
        "contract": "contracts/DuetBridge.sol:DuetBridge",
        "label": "__gap",
        "offset": 0,
        "slot": "51",
        "type": "t_array(t_uint256)50_storage"
      },
      {
        "astId": 189,
        "contract": "contracts/DuetBridge.sol:DuetBridge",
        "label": "_paused",
        "offset": 0,
        "slot": "101",
        "type": "t_bool"
      },
      {
        "astId": 294,
        "contract": "contracts/DuetBridge.sol:DuetBridge",
        "label": "__gap",
        "offset": 0,
        "slot": "102",
        "type": "t_array(t_uint256)49_storage"
      },
      {
        "astId": 5608,
        "contract": "contracts/DuetBridge.sol:DuetBridge",
        "label": "admin",
        "offset": 0,
        "slot": "151",
        "type": "t_address"
      },
      {
        "astId": 4432,
        "contract": "contracts/DuetBridge.sol:DuetBridge",
        "label": "chainContractMapping",
        "offset": 0,
        "slot": "152",
        "type": "t_mapping(t_uint64,t_address)"
      },
      {
        "astId": 4436,
        "contract": "contracts/DuetBridge.sol:DuetBridge",
        "label": "tokenMapping",
        "offset": 0,
        "slot": "153",
        "type": "t_mapping(t_address,t_address)"
      },
      {
        "astId": 4440,
        "contract": "contracts/DuetBridge.sol:DuetBridge",
        "label": "tokenMinTransfer",
        "offset": 0,
        "slot": "154",
        "type": "t_mapping(t_address,t_uint256)"
      },
      {
        "astId": 4442,
        "contract": "contracts/DuetBridge.sol:DuetBridge",
        "label": "messageBus",
        "offset": 0,
        "slot": "155",
        "type": "t_address"
      },
      {
        "astId": 4444,
        "contract": "contracts/DuetBridge.sol:DuetBridge",
        "label": "originalChainId",
        "offset": 20,
        "slot": "155",
        "type": "t_uint64"
      },
      {
        "astId": 4448,
        "contract": "contracts/DuetBridge.sol:DuetBridge",
        "label": "executors",
        "offset": 0,
        "slot": "156",
        "type": "t_mapping(t_address,t_bool)"
      },
      {
        "astId": 4452,
        "contract": "contracts/DuetBridge.sol:DuetBridge",
        "label": "nonces",
        "offset": 0,
        "slot": "157",
        "type": "t_mapping(t_address,t_uint64)"
      },
      {
        "astId": 4460,
        "contract": "contracts/DuetBridge.sol:DuetBridge",
        "label": "receivedNonces",
        "offset": 0,
        "slot": "158",
        "type": "t_mapping(t_address,t_mapping(t_uint64,t_mapping(t_uint64,t_bool)))"
      }
    ],
    "types": {
      "t_address": {
        "encoding": "inplace",
        "label": "address",
        "numberOfBytes": "20"
      },
      "t_array(t_uint256)49_storage": {
        "base": "t_uint256",
        "encoding": "inplace",
        "label": "uint256[49]",
        "numberOfBytes": "1568"
      },
      "t_array(t_uint256)50_storage": {
        "base": "t_uint256",
        "encoding": "inplace",
        "label": "uint256[50]",
        "numberOfBytes": "1600"
      },
      "t_bool": {
        "encoding": "inplace",
        "label": "bool",
        "numberOfBytes": "1"
      },
      "t_mapping(t_address,t_address)": {
        "encoding": "mapping",
        "key": "t_address",
        "label": "mapping(address => address)",
        "numberOfBytes": "32",
        "value": "t_address"
      },
      "t_mapping(t_address,t_bool)": {
        "encoding": "mapping",
        "key": "t_address",
        "label": "mapping(address => bool)",
        "numberOfBytes": "32",
        "value": "t_bool"
      },
      "t_mapping(t_address,t_mapping(t_uint64,t_mapping(t_uint64,t_bool)))": {
        "encoding": "mapping",
        "key": "t_address",
        "label": "mapping(address => mapping(uint64 => mapping(uint64 => bool)))",
        "numberOfBytes": "32",
        "value": "t_mapping(t_uint64,t_mapping(t_uint64,t_bool))"
      },
      "t_mapping(t_address,t_uint256)": {
        "encoding": "mapping",
        "key": "t_address",
        "label": "mapping(address => uint256)",
        "numberOfBytes": "32",
        "value": "t_uint256"
      },
      "t_mapping(t_address,t_uint64)": {
        "encoding": "mapping",
        "key": "t_address",
        "label": "mapping(address => uint64)",
        "numberOfBytes": "32",
        "value": "t_uint64"
      },
      "t_mapping(t_uint64,t_address)": {
        "encoding": "mapping",
        "key": "t_uint64",
        "label": "mapping(uint64 => address)",
        "numberOfBytes": "32",
        "value": "t_address"
      },
      "t_mapping(t_uint64,t_bool)": {
        "encoding": "mapping",
        "key": "t_uint64",
        "label": "mapping(uint64 => bool)",
        "numberOfBytes": "32",
        "value": "t_bool"
      },
      "t_mapping(t_uint64,t_mapping(t_uint64,t_bool))": {
        "encoding": "mapping",
        "key": "t_uint64",
        "label": "mapping(uint64 => mapping(uint64 => bool))",
        "numberOfBytes": "32",
        "value": "t_mapping(t_uint64,t_bool)"
      },
      "t_uint256": {
        "encoding": "inplace",
        "label": "uint256",
        "numberOfBytes": "32"
      },
      "t_uint64": {
        "encoding": "inplace",
        "label": "uint64",
        "numberOfBytes": "8"
      },
      "t_uint8": {
        "encoding": "inplace",
        "label": "uint8",
        "numberOfBytes": "1"
      }
    }
  }
}