{
  "address": "0x6d2a9364E5d1a3937509e1c4f6EC7687761574bd",
  "abi": [
    {
      "inputs": [
        {
          "internalType": "string",
          "name": "name_",
          "type": "string"
        },
        {
          "internalType": "string",
          "name": "symbol_",
          "type": "string"
        },
        {
          "internalType": "uint8",
          "name": "decimals_",
          "type": "uint8"
        },
        {
          "internalType": "uint256",
          "name": "maxSupply_",
          "type": "uint256"
        },
        {
          "internalType": "address",
          "name": "originalToken_",
          "type": "address"
        },
        {
          "internalType": "address",
          "name": "minter_",
          "type": "address"
        }
      ],
      "stateMutability": "nonpayable",
      "type": "constructor"
    },
    {
      "anonymous": false,
      "inputs": [
        {
          "indexed": true,
          "internalType": "address",
          "name": "owner",
          "type": "address"
        },
        {
          "indexed": true,
          "internalType": "address",
          "name": "spender",
          "type": "address"
        },
        {
          "indexed": false,
          "internalType": "uint256",
          "name": "value",
          "type": "uint256"
        }
      ],
      "name": "Approval",
      "type": "event"
    },
    {
      "anonymous": false,
      "inputs": [
        {
          "indexed": true,
          "internalType": "address",
          "name": "operator",
          "type": "address"
        },
        {
          "indexed": true,
          "internalType": "address",
          "name": "previousMinter",
          "type": "address"
        },
        {
          "indexed": true,
          "internalType": "address",
          "name": "newMinter",
          "type": "address"
        }
      ],
      "name": "MinterTransferred",
      "type": "event"
    },
    {
      "anonymous": false,
      "inputs": [
        {
          "indexed": true,
          "internalType": "address",
          "name": "previousOwner",
          "type": "address"
        },
        {
          "indexed": true,
          "internalType": "address",
          "name": "newOwner",
          "type": "address"
        }
      ],
      "name": "OwnershipTransferred",
      "type": "event"
    },
    {
      "anonymous": false,
      "inputs": [
        {
          "indexed": true,
          "internalType": "address",
          "name": "from",
          "type": "address"
        },
        {
          "indexed": true,
          "internalType": "address",
          "name": "to",
          "type": "address"
        },
        {
          "indexed": false,
          "internalType": "uint256",
          "name": "value",
          "type": "uint256"
        }
      ],
      "name": "Transfer",
      "type": "event"
    },
    {
      "inputs": [],
      "name": "DOMAIN_SEPARATOR",
      "outputs": [
        {
          "internalType": "bytes32",
          "name": "",
          "type": "bytes32"
        }
      ],
      "stateMutability": "view",
      "type": "function"
    },
    {
      "inputs": [
        {
          "internalType": "address",
          "name": "owner",
          "type": "address"
        },
        {
          "internalType": "address",
          "name": "spender",
          "type": "address"
        }
      ],
      "name": "allowance",
      "outputs": [
        {
          "internalType": "uint256",
          "name": "",
          "type": "uint256"
        }
      ],
      "stateMutability": "view",
      "type": "function"
    },
    {
      "inputs": [
        {
          "internalType": "address",
          "name": "spender",
          "type": "address"
        },
        {
          "internalType": "uint256",
          "name": "amount",
          "type": "uint256"
        }
      ],
      "name": "approve",
      "outputs": [
        {
          "internalType": "bool",
          "name": "",
          "type": "bool"
        }
      ],
      "stateMutability": "nonpayable",
      "type": "function"
    },
    {
      "inputs": [
        {
          "internalType": "address",
          "name": "account",
          "type": "address"
        }
      ],
      "name": "balanceOf",
      "outputs": [
        {
          "internalType": "uint256",
          "name": "",
          "type": "uint256"
        }
      ],
      "stateMutability": "view",
      "type": "function"
    },
    {
      "inputs": [
        {
          "internalType": "address",
          "name": "account_",
          "type": "address"
        },
        {
          "internalType": "uint256",
          "name": "amount_",
          "type": "uint256"
        }
      ],
      "name": "burnFrom",
      "outputs": [],
      "stateMutability": "nonpayable",
      "type": "function"
    },
    {
      "inputs": [],
      "name": "decimals",
      "outputs": [
        {
          "internalType": "uint8",
          "name": "",
          "type": "uint8"
        }
      ],
      "stateMutability": "view",
      "type": "function"
    },
    {
      "inputs": [
        {
          "internalType": "address",
          "name": "spender",
          "type": "address"
        },
        {
          "internalType": "uint256",
          "name": "subtractedValue",
          "type": "uint256"
        }
      ],
      "name": "decreaseAllowance",
      "outputs": [
        {
          "internalType": "bool",
          "name": "",
          "type": "bool"
        }
      ],
      "stateMutability": "nonpayable",
      "type": "function"
    },
    {
      "inputs": [
        {
          "internalType": "address",
          "name": "spender",
          "type": "address"
        },
        {
          "internalType": "uint256",
          "name": "addedValue",
          "type": "uint256"
        }
      ],
      "name": "increaseAllowance",
      "outputs": [
        {
          "internalType": "bool",
          "name": "",
          "type": "bool"
        }
      ],
      "stateMutability": "nonpayable",
      "type": "function"
    },
    {
      "inputs": [],
      "name": "maxSupply",
      "outputs": [
        {
          "internalType": "uint256",
          "name": "",
          "type": "uint256"
        }
      ],
      "stateMutability": "view",
      "type": "function"
    },
    {
      "inputs": [
        {
          "internalType": "address",
          "name": "to_",
          "type": "address"
        },
        {
          "internalType": "uint256",
          "name": "amount_",
          "type": "uint256"
        }
      ],
      "name": "mint",
      "outputs": [],
      "stateMutability": "nonpayable",
      "type": "function"
    },
    {
      "inputs": [],
      "name": "minter",
      "outputs": [
        {
          "internalType": "address",
          "name": "",
          "type": "address"
        }
      ],
      "stateMutability": "view",
      "type": "function"
    },
    {
      "inputs": [],
      "name": "name",
      "outputs": [
        {
          "internalType": "string",
          "name": "",
          "type": "string"
        }
      ],
      "stateMutability": "view",
      "type": "function"
    },
    {
      "inputs": [
        {
          "internalType": "address",
          "name": "owner",
          "type": "address"
        }
      ],
      "name": "nonces",
      "outputs": [
        {
          "internalType": "uint256",
          "name": "",
          "type": "uint256"
        }
      ],
      "stateMutability": "view",
      "type": "function"
    },
    {
      "inputs": [],
      "name": "originalToken",
      "outputs": [
        {
          "internalType": "address",
          "name": "",
          "type": "address"
        }
      ],
      "stateMutability": "view",
      "type": "function"
    },
    {
      "inputs": [],
      "name": "owner",
      "outputs": [
        {
          "internalType": "address",
          "name": "",
          "type": "address"
        }
      ],
      "stateMutability": "view",
      "type": "function"
    },
    {
      "inputs": [
        {
          "internalType": "address",
          "name": "owner",
          "type": "address"
        },
        {
          "internalType": "address",
          "name": "spender",
          "type": "address"
        },
        {
          "internalType": "uint256",
          "name": "value",
          "type": "uint256"
        },
        {
          "internalType": "uint256",
          "name": "deadline",
          "type": "uint256"
        },
        {
          "internalType": "uint8",
          "name": "v",
          "type": "uint8"
        },
        {
          "internalType": "bytes32",
          "name": "r",
          "type": "bytes32"
        },
        {
          "internalType": "bytes32",
          "name": "s",
          "type": "bytes32"
        }
      ],
      "name": "permit",
      "outputs": [],
      "stateMutability": "nonpayable",
      "type": "function"
    },
    {
      "inputs": [],
      "name": "renounceOwnership",
      "outputs": [],
      "stateMutability": "nonpayable",
      "type": "function"
    },
    {
      "inputs": [
        {
          "internalType": "uint256",
          "name": "maxSupply_",
          "type": "uint256"
        }
      ],
      "name": "setMaxSupply",
      "outputs": [],
      "stateMutability": "nonpayable",
      "type": "function"
    },
    {
      "inputs": [
        {
          "internalType": "address",
          "name": "minter_",
          "type": "address"
        }
      ],
      "name": "setMinter",
      "outputs": [],
      "stateMutability": "nonpayable",
      "type": "function"
    },
    {
      "inputs": [],
      "name": "symbol",
      "outputs": [
        {
          "internalType": "string",
          "name": "",
          "type": "string"
        }
      ],
      "stateMutability": "view",
      "type": "function"
    },
    {
      "inputs": [],
      "name": "totalSupply",
      "outputs": [
        {
          "internalType": "uint256",
          "name": "",
          "type": "uint256"
        }
      ],
      "stateMutability": "view",
      "type": "function"
    },
    {
      "inputs": [
        {
          "internalType": "address",
          "name": "to",
          "type": "address"
        },
        {
          "internalType": "uint256",
          "name": "amount",
          "type": "uint256"
        }
      ],
      "name": "transfer",
      "outputs": [
        {
          "internalType": "bool",
          "name": "",
          "type": "bool"
        }
      ],
      "stateMutability": "nonpayable",
      "type": "function"
    },
    {
      "inputs": [
        {
          "internalType": "address",
          "name": "from",
          "type": "address"
        },
        {
          "internalType": "address",
          "name": "to",
          "type": "address"
        },
        {
          "internalType": "uint256",
          "name": "amount",
          "type": "uint256"
        }
      ],
      "name": "transferFrom",
      "outputs": [
        {
          "internalType": "bool",
          "name": "",
          "type": "bool"
        }
      ],
      "stateMutability": "nonpayable",
      "type": "function"
    },
    {
      "inputs": [
        {
          "internalType": "address",
          "name": "newOwner",
          "type": "address"
        }
      ],
      "name": "transferOwnership",
      "outputs": [],
      "stateMutability": "nonpayable",
      "type": "function"
    }
  ],
  "transactionHash": "0xb1a64adf75e3c511aa7267ab489d3656c122971c5eb6eb1da6bb719d74216eca",
  "args": [
    "Bonded Duet(DUET-PEG)",
    "bDuet#6",
    18,
    "2800000000000000000000000",
    "0xC382911459d4F8A2c7dbca957e28b02c8f7e03c9",
    "0x00A931d052Ecd50847191620f2Ad2760D236376D"
  ],
  "numDeployments": 1,
  "solcInputHash": "0fe8beda8f9c8a29bf7c9b24ff2afc2f",
  "bytecode": "0x61014080604052346200053b5762001ab5803803809162000021828562000540565b8339810160c0828203126200053b5781516001600160401b0381116200053b57816200004f91840162000564565b602083015190916001600160401b0382116200053b576200007291840162000564565b60408301519260ff841684036200053b57606081015190620000a560a06200009d60808401620005db565b9201620005db565b60408051949192919085016001600160401b03811186821017620002ed5760405260018552603160f81b602086015285516001600160401b038111620002ed57600354600181811c9116801562000530575b60208210146200041357601f8111620004ca575b50806020601f8211600114620004405760009162000434575b508160011b916000199060031b1c1916176003555b8051906001600160401b038211620002ed5760045490600182811c9216801562000429575b6020831014620004135781601f8493116200039e575b50602090601f83116001146200030f5760009262000303575b50508160011b916000199060031b1c1916176004555b600580546001600160a01b0319808216339081179093556040519790946001600160a01b039493909285167f8be0079c531659141344cd1fd0a4f28419497f9722a3daafe3b4186f6b6457e0600080a3602081519101209560208151910120978660e05261010098808a524660a05260208901907f8b73c3c69bb8fe3d512ecc4cf759cc79239f7b179b0ffacaa9a75d522b39400f9889835260408b015260608a01524660808a01523060a08a015260a0895260c0890198808a1060018060401b038b1117620002ed57896040525190206080523060c052610120968752836008549160ff60a01b9060a01b1692169060018060a81b03191617176008551690600a541617600a556009556114c49283620005f1843960805183611336015260a05183611402015260c05183611300015260e05183611385015251826113ab015251816113620152f35b634e487b7160e01b600052604160045260246000fd5b0151905038806200018d565b6004600090815293507f8a35acfbc15ff81a39ae7d344fd709f28e8600b4aa8c65c6b64bfe7fe36bd19b91905b601f198416851062000382576001945083601f1981161062000368575b505050811b01600455620001a3565b015160001960f88460031b161c1916905538808062000359565b818101518355602094850194600190930192909101906200033c565b60046000529091507f8a35acfbc15ff81a39ae7d344fd709f28e8600b4aa8c65c6b64bfe7fe36bd19b601f840160051c8101916020851062000408575b90601f859493920160051c01905b818110620003f8575062000174565b60008155849350600101620003e9565b9091508190620003db565b634e487b7160e01b600052602260045260246000fd5b91607f16916200015e565b90508701513862000124565b6003600090815292507fc2575a0e9e593c00f959f8c92f12db2869c3395a3b0502d05e2516446f71f85b905b601f1983168410620004b1576001935082601f1981161062000497575b5050811b0160035562000139565b89015160001960f88460031b161c19169055388062000489565b898101518255602093840193600190920191016200046c565b60036000527fc2575a0e9e593c00f959f8c92f12db2869c3395a3b0502d05e2516446f71f85b601f830160051c81016020841062000528575b601f830160051c820181106200051b5750506200010b565b6000815560010162000503565b508062000503565b90607f1690620000f7565b600080fd5b601f909101601f19168101906001600160401b03821190821017620002ed57604052565b919080601f840112156200053b578251906001600160401b038211620002ed5760405191602091620005a0601f8301601f191684018562000540565b8184528282870101116200053b5760005b818110620005c757508260009394955001015290565b8581018301518482018401528201620005b1565b51906001600160a01b03821682036200053b5756fe6080604081815260048036101561001557600080fd5b600092833560e01c90816306fdde0314610cc1575080630754617214610c98578063095ea7b314610c6e5780630e7c1cb514610c4557806318160ddd14610c2657806323b872dd14610b5c578063313ce56714610b375780633644e51514610b135780633950935114610ac357806340c10f191461094b5780636f8b44b01461092957806370a08231146108f2578063715018a61461089557806379cc6790146107635780637ecebe001461072b5780638da5cb5b1461070257806395d89b41146105fe578063a457c2d714610557578063a9059cbb14610526578063d505accf14610339578063d5abeb011461031a578063dd62ed3e146102cd578063f2fde38b146102025763fca3b5aa1461012b57600080fd5b346101fe5760203660031901126101fe57610144610e00565b9061014d610e31565b6001600160a01b039182169283156101a4575050600854826bffffffffffffffffffffffff60a01b82161760085516337f500b51832ef99737beaab00d6696adb173f967cc756cfbad76ef5d83474eb7138480a480f35b906020608492519162461bcd60e51b8352820152602e60248201527f4e61697665506567546f6b656e3a2043616e7420736574206d696e746572207460448201526d6f207a65726f206164647265737360901b6064820152fd5b8280fd5b50346101fe5760203660031901126101fe5761021c610e00565b90610225610e31565b6001600160a01b0391821692831561027b575050600554826bffffffffffffffffffffffff60a01b821617600555167f8be0079c531659141344cd1fd0a4f28419497f9722a3daafe3b4186f6b6457e08380a380f35b906020608492519162461bcd60e51b8352820152602660248201527f4f776e61626c653a206e6577206f776e657220697320746865207a65726f206160448201526564647265737360d01b6064820152fd5b505034610316578060031936011261031657806020926102eb610e00565b6102f3610e1b565b6001600160a01b0391821683526001865283832091168252845220549051908152f35b5080fd5b5050346103165781600319360112610316576020906009549051908152f35b508290346103165760e036600319011261031657610355610e00565b61035d610e1b565b90604435926064356084359060ff82168203610522578042116104df5760018060a01b03908185169283895260066020528989208054906001820190558a519260208401917f6e71edae12b1b97f4d1f60370fef10105fa2faae0126114a169c64845d6126c98352868d860152858a1660608601528a608086015260a085015260c084015260c0835260e083019267ffffffffffffffff93818110858211176104cc578c525190209061040e6112fd565b928b5192602084019461190160f01b865260228501526042840152604283526080830190838210908211176104b957916104619391610459938d5260c4359260a4359251902061126e565b919091611154565b16036104765750610473939450611052565b80f35b606490602087519162461bcd60e51b8352820152601e60248201527f45524332305065726d69743a20696e76616c6964207369676e617475726500006044820152fd5b634e487b7160e01b8b526041875260248bfd5b634e487b7160e01b8c526041885260248cfd5b875162461bcd60e51b8152602081850152601d60248201527f45524332305065726d69743a206578706972656420646561646c696e650000006044820152606490fd5b8680fd5b505034610316578060031936011261031657602090610550610546610e00565b6024359033610ee4565b5160018152f35b5082346105fb57826003193601126105fb57610571610e00565b918360243592338152600160205281812060018060a01b03861682526020522054908282106105aa576020856105508585038733611052565b608490602086519162461bcd60e51b8352820152602560248201527f45524332303a2064656372656173656420616c6c6f77616e63652062656c6f77604482015264207a65726f60d81b6064820152fd5b80fd5b50919034610316578160031936011261031657805191809380549160019083821c928285169485156106f8575b60209586861081146106e5578589529081156106c15750600114610669575b610665878761065b828c0383610e89565b5191829182610db7565b0390f35b81529295507f8a35acfbc15ff81a39ae7d344fd709f28e8600b4aa8c65c6b64bfe7fe36bd19b5b8284106106ae57505050826106659461065b9282010194388061064a565b8054868501880152928601928101610690565b60ff19168887015250505050151560051b830101925061065b82610665388061064a565b634e487b7160e01b845260228352602484fd5b93607f169361062b565b50503461031657816003193601126103165760055490516001600160a01b039091168152602090f35b5050346103165760203660031901126103165760209181906001600160a01b03610753610e00565b1681526006845220549051908152f35b5082903461031657826003193601126103165761077e610e00565b600854602435916001600160a01b039161079b9083163314611428565b16918215610848578284528360205284842054908282106107fa57508184957fddf252ad1be2c89b69c2b068fc378daa952ba7f163c4a11628f55a4df523b3ef936020938688528785520381872055816002540360025551908152a380f35b608490602087519162461bcd60e51b8352820152602260248201527f45524332303a206275726e20616d6f756e7420657863656564732062616c616e604482015261636560f01b6064820152fd5b608490602086519162461bcd60e51b8352820152602160248201527f45524332303a206275726e2066726f6d20746865207a65726f206164647265736044820152607360f81b6064820152fd5b83346105fb57806003193601126105fb576108ae610e31565b600580546001600160a01b0319811690915581906001600160a01b03167f8be0079c531659141344cd1fd0a4f28419497f9722a3daafe3b4186f6b6457e08280a380f35b5050346103165760203660031901126103165760209181906001600160a01b0361091a610e00565b16815280845220549051908152f35b83823461031657602036600319011261031657610944610e31565b3560095580f35b5090346101fe57806003193601126101fe57610965610e00565b906024359160018060a01b0361098081600854163314611428565b8315610a8057600254916109948584610ec1565b60095410610a3257169384156109ef5750827fddf252ad1be2c89b69c2b068fc378daa952ba7f163c4a11628f55a4df523b3ef926109d58795602094610ec1565b60025585855284835280852082815401905551908152a380f35b606490602084519162461bcd60e51b8352820152601f60248201527f45524332303a206d696e7420746f20746865207a65726f2061646472657373006044820152fd5b835162461bcd60e51b8152602081880152602260248201527f4e61697665506567546f6b656e3a204d617820737570706c7920657863656564604482015261195960f21b6064820152608490fd5b825162461bcd60e51b8152602081870152601e60248201527f4e61697665506567546f6b656e3a204e6f7468696e6720746f206d696e7400006044820152606490fd5b505034610316578060031936011261031657610550602092610b0c610ae6610e00565b338352600186528483206001600160a01b03821684528652918490205460243590610ec1565b9033611052565b505034610316578160031936011261031657602090610b306112fd565b9051908152f35b50503461031657816003193601126103165760209060ff60085460a01c169051908152f35b5082903461031657606036600319011261031657610b78610e00565b610b80610e1b565b91846044359460018060a01b038416815260016020528181203382526020522054906000198203610bba575b602086610550878787610ee4565b848210610be35750918391610bd86020969561055095033383611052565b919394819350610bac565b606490602087519162461bcd60e51b8352820152601d60248201527f45524332303a20696e73756666696369656e7420616c6c6f77616e63650000006044820152fd5b5050346103165781600319360112610316576020906002549051908152f35b505034610316578160031936011261031657600a5490516001600160a01b039091168152602090f35b505034610316578060031936011261031657602090610550610c8e610e00565b6024359033611052565b50503461031657816003193601126103165760085490516001600160a01b039091168152602090f35b9291905034610db35783600319360112610db357600354600181811c9186908281168015610da9575b6020958686108214610d965750848852908115610d745750600114610d1b575b610665868661065b828b0383610e89565b929550600383527fc2575a0e9e593c00f959f8c92f12db2869c3395a3b0502d05e2516446f71f85b5b828410610d6157505050826106659461065b928201019438610d0a565b8054868501880152928601928101610d44565b60ff191687860152505050151560051b830101925061065b8261066538610d0a565b634e487b7160e01b845260229052602483fd5b93607f1693610cea565b8380fd5b6020808252825181830181905290939260005b828110610dec57505060409293506000838284010152601f8019910116010190565b818101860151848201604001528501610dca565b600435906001600160a01b0382168203610e1657565b600080fd5b602435906001600160a01b0382168203610e1657565b6005546001600160a01b03163303610e4557565b606460405162461bcd60e51b815260206004820152602060248201527f4f776e61626c653a2063616c6c6572206973206e6f7420746865206f776e65726044820152fd5b90601f8019910116810190811067ffffffffffffffff821117610eab57604052565b634e487b7160e01b600052604160045260246000fd5b91908201809211610ece57565b634e487b7160e01b600052601160045260246000fd5b6001600160a01b03908116918215610fff5716918215610fae57600082815280602052604081205491808310610f5a57604082827fddf252ad1be2c89b69c2b068fc378daa952ba7f163c4a11628f55a4df523b3ef958760209652828652038282205586815220818154019055604051908152a3565b60405162461bcd60e51b815260206004820152602660248201527f45524332303a207472616e7366657220616d6f756e7420657863656564732062604482015265616c616e636560d01b6064820152608490fd5b60405162461bcd60e51b815260206004820152602360248201527f45524332303a207472616e7366657220746f20746865207a65726f206164647260448201526265737360e81b6064820152608490fd5b60405162461bcd60e51b815260206004820152602560248201527f45524332303a207472616e736665722066726f6d20746865207a65726f206164604482015264647265737360d81b6064820152608490fd5b6001600160a01b0390811691821561110357169182156110b35760207f8c5be1e5ebec7d5bd14f71427d1e84f3dd0314c0f7b2291e5b200ac8c7c3b925918360005260018252604060002085600052825280604060002055604051908152a3565b60405162461bcd60e51b815260206004820152602260248201527f45524332303a20617070726f766520746f20746865207a65726f206164647265604482015261737360f01b6064820152608490fd5b60405162461bcd60e51b8152602060048201526024808201527f45524332303a20617070726f76652066726f6d20746865207a65726f206164646044820152637265737360e01b6064820152608490fd5b600581101561125857806111655750565b600181036111b25760405162461bcd60e51b815260206004820152601860248201527f45434453413a20696e76616c6964207369676e617475726500000000000000006044820152606490fd5b600281036111ff5760405162461bcd60e51b815260206004820152601f60248201527f45434453413a20696e76616c6964207369676e6174757265206c656e677468006044820152606490fd5b60031461120857565b60405162461bcd60e51b815260206004820152602260248201527f45434453413a20696e76616c6964207369676e6174757265202773272076616c604482015261756560f01b6064820152608490fd5b634e487b7160e01b600052602160045260246000fd5b9291907f7fffffffffffffffffffffffffffffff5d576e7357a4501ddfe92f46681b20a083116112f15791608094939160ff602094604051948552168484015260408301526060820152600093849182805260015afa156112e45781516001600160a01b038116156112de579190565b50600190565b50604051903d90823e3d90fd5b50505050600090600390565b307f00000000000000000000000000000000000000000000000000000000000000006001600160a01b031614806113ff575b15611358577f000000000000000000000000000000000000000000000000000000000000000090565b60405160208101907f000000000000000000000000000000000000000000000000000000000000000082527f000000000000000000000000000000000000000000000000000000000000000060408201527f000000000000000000000000000000000000000000000000000000000000000060608201524660808201523060a082015260a0815260c0810181811067ffffffffffffffff821117610eab5760405251902090565b507f0000000000000000000000000000000000000000000000000000000000000000461461132f565b1561142f57565b60405162461bcd60e51b815260206004820152603160248201527f4e61697665506567546f6b656e3a204f6e6c79206d696e7465722063616e206360448201527030b636103a3434b990333ab731ba34b7b760791b6064820152608490fdfea2646970667358221220fc38ad2feef07decd9977a441daae896be3295abc11661ae76dca41a36a9ab2864736f6c63430008110033",
  "devdoc": {
    "kind": "dev",
    "methods": {
      "DOMAIN_SEPARATOR()": {
        "details": "See {IERC20Permit-DOMAIN_SEPARATOR}."
      },
      "allowance(address,address)": {
        "details": "See {IERC20-allowance}."
      },
      "approve(address,uint256)": {
        "details": "See {IERC20-approve}. NOTE: If `amount` is the maximum `uint256`, the allowance is not updated on `transferFrom`. This is semantically equivalent to an infinite approval. Requirements: - `spender` cannot be the zero address."
      },
      "balanceOf(address)": {
        "details": "See {IERC20-balanceOf}."
      },
      "burnFrom(address,uint256)": {
        "details": "Burns `amount` tokens from `account`For accounting purposes, as a peg token, users are not allowed to burn it themselves."
      },
      "decimals()": {
        "details": "Returns the number of decimals used to get its user representation. For example, if `decimals` equals `2`, a balance of `505` tokens should be displayed to a user as `5.05` (`505 / 10 ** 2`). Tokens usually opt for a value of 18, imitating the relationship between Ether and Wei. This is the value {ERC20} uses, unless this function is overridden; NOTE: This information is only used for _display_ purposes: it in no way affects any of the arithmetic of the contract, including {IERC20-balanceOf} and {IERC20-transfer}."
      },
      "decreaseAllowance(address,uint256)": {
        "details": "Atomically decreases the allowance granted to `spender` by the caller. This is an alternative to {approve} that can be used as a mitigation for problems described in {IERC20-approve}. Emits an {Approval} event indicating the updated allowance. Requirements: - `spender` cannot be the zero address. - `spender` must have allowance for the caller of at least `subtractedValue`."
      },
      "increaseAllowance(address,uint256)": {
        "details": "Atomically increases the allowance granted to `spender` by the caller. This is an alternative to {approve} that can be used as a mitigation for problems described in {IERC20-approve}. Emits an {Approval} event indicating the updated allowance. Requirements: - `spender` cannot be the zero address."
      },
      "name()": {
        "details": "Returns the name of the token."
      },
      "nonces(address)": {
        "details": "See {IERC20Permit-nonces}."
      },
      "owner()": {
        "details": "Returns the address of the current owner."
      },
      "permit(address,address,uint256,uint256,uint8,bytes32,bytes32)": {
        "details": "See {IERC20Permit-permit}."
      },
      "renounceOwnership()": {
        "details": "Leaves the contract without owner. It will not be possible to call `onlyOwner` functions anymore. Can only be called by the current owner. NOTE: Renouncing ownership will leave the contract without an owner, thereby removing any functionality that is only available to the owner."
      },
      "symbol()": {
        "details": "Returns the symbol of the token, usually a shorter version of the name."
      },
      "totalSupply()": {
        "details": "See {IERC20-totalSupply}."
      },
      "transfer(address,uint256)": {
        "details": "See {IERC20-transfer}. Requirements: - `to` cannot be the zero address. - the caller must have a balance of at least `amount`."
      },
      "transferFrom(address,address,uint256)": {
        "details": "See {IERC20-transferFrom}. Emits an {Approval} event indicating the updated allowance. This is not required by the EIP. See the note at the beginning of {ERC20}. NOTE: Does not update the allowance if the current allowance is the maximum `uint256`. Requirements: - `from` and `to` cannot be the zero address. - `from` must have a balance of at least `amount`. - the caller must have allowance for ``from``'s tokens of at least `amount`."
      },
      "transferOwnership(address)": {
        "details": "Transfers ownership of the contract to a new account (`newOwner`). Can only be called by the current owner."
      }
    },
    "version": 1
  },
  "userdoc": {
    "kind": "user",
    "methods": {},
    "version": 1
  },
  "storageLayout": {
    "storage": [
      {
        "astId": 1243,
        "contract": "contracts/NaivePegToken.sol:NaivePegToken",
        "label": "_balances",
        "offset": 0,
        "slot": "0",
        "type": "t_mapping(t_address,t_uint256)"
      },
      {
        "astId": 1249,
        "contract": "contracts/NaivePegToken.sol:NaivePegToken",
        "label": "_allowances",
        "offset": 0,
        "slot": "1",
        "type": "t_mapping(t_address,t_mapping(t_address,t_uint256))"
      },
      {
        "astId": 1251,
        "contract": "contracts/NaivePegToken.sol:NaivePegToken",
        "label": "_totalSupply",
        "offset": 0,
        "slot": "2",
        "type": "t_uint256"
      },
      {
        "astId": 1253,
        "contract": "contracts/NaivePegToken.sol:NaivePegToken",
        "label": "_name",
        "offset": 0,
        "slot": "3",
        "type": "t_string_storage"
      },
      {
        "astId": 1255,
        "contract": "contracts/NaivePegToken.sol:NaivePegToken",
        "label": "_symbol",
        "offset": 0,
        "slot": "4",
        "type": "t_string_storage"
      },
      {
        "astId": 1122,
        "contract": "contracts/NaivePegToken.sol:NaivePegToken",
        "label": "_owner",
        "offset": 0,
        "slot": "5",
        "type": "t_address"
      },
      {
        "astId": 1940,
        "contract": "contracts/NaivePegToken.sol:NaivePegToken",
        "label": "_nonces",
        "offset": 0,
        "slot": "6",
        "type": "t_mapping(t_address,t_struct(Counter)2764_storage)"
      },
      {
        "astId": 1948,
        "contract": "contracts/NaivePegToken.sol:NaivePegToken",
        "label": "_PERMIT_TYPEHASH_DEPRECATED_SLOT",
        "offset": 0,
        "slot": "7",
        "type": "t_bytes32"
      },
      {
        "astId": 5378,
        "contract": "contracts/NaivePegToken.sol:NaivePegToken",
        "label": "minter",
        "offset": 0,
        "slot": "8",
        "type": "t_address"
      },
      {
        "astId": 5380,
        "contract": "contracts/NaivePegToken.sol:NaivePegToken",
        "label": "_decimals",
        "offset": 20,
        "slot": "8",
        "type": "t_uint8"
      },
      {
        "astId": 5382,
        "contract": "contracts/NaivePegToken.sol:NaivePegToken",
        "label": "maxSupply",
        "offset": 0,
        "slot": "9",
        "type": "t_uint256"
      },
      {
        "astId": 5384,
        "contract": "contracts/NaivePegToken.sol:NaivePegToken",
        "label": "originalToken",
        "offset": 0,
        "slot": "10",
        "type": "t_address"
      }
    ],
    "types": {
      "t_address": {
        "encoding": "inplace",
        "label": "address",
        "numberOfBytes": "20"
      },
      "t_bytes32": {
        "encoding": "inplace",
        "label": "bytes32",
        "numberOfBytes": "32"
      },
      "t_mapping(t_address,t_mapping(t_address,t_uint256))": {
        "encoding": "mapping",
        "key": "t_address",
        "label": "mapping(address => mapping(address => uint256))",
        "numberOfBytes": "32",
        "value": "t_mapping(t_address,t_uint256)"
      },
      "t_mapping(t_address,t_struct(Counter)2764_storage)": {
        "encoding": "mapping",
        "key": "t_address",
        "label": "mapping(address => struct Counters.Counter)",
        "numberOfBytes": "32",
        "value": "t_struct(Counter)2764_storage"
      },
      "t_mapping(t_address,t_uint256)": {
        "encoding": "mapping",
        "key": "t_address",
        "label": "mapping(address => uint256)",
        "numberOfBytes": "32",
        "value": "t_uint256"
      },
      "t_string_storage": {
        "encoding": "bytes",
        "label": "string",
        "numberOfBytes": "32"
      },
      "t_struct(Counter)2764_storage": {
        "encoding": "inplace",
        "label": "struct Counters.Counter",
        "members": [
          {
            "astId": 2763,
            "contract": "contracts/NaivePegToken.sol:NaivePegToken",
            "label": "_value",
            "offset": 0,
            "slot": "0",
            "type": "t_uint256"
          }
        ],
        "numberOfBytes": "32"
      },
      "t_uint256": {
        "encoding": "inplace",
        "label": "uint256",
        "numberOfBytes": "32"
      },
      "t_uint8": {
        "encoding": "inplace",
        "label": "uint8",
        "numberOfBytes": "1"
      }
    }
  }
}